:100000000C9434000C9451000C9451000C94510049
:100010000C9451000C9451000C9451000C9451001C
:100020000C9451000C9451000C9451000C9451000C
:100030000C9451000C9451000C9451000C945100FC
:100040000C9451000C9451000C9451000C945100EC
:100050000C9451000C9451000C9451000C945100DC
:100060000C9451000C94510011241FBECFEFD8E026
:10007000DEBFCDBF11E0A0E0B1E0E0E5FAE002C0F4
:1000800005900D92AE33B107D9F711E0AEE3B1E0C0
:1000900001C01D92A034B107E1F70E94BD010C948C
:1000A00026050C94000046B121E030E002C0220F8A
:1000B000331F8A95E2F7422380E49CE90197F1F728
:1000C00086B190E028233923842F90E02817390740
:1000D00009F040E0842F0895EF92FF920F931F9351
:1000E000DF93CF93CDB7DEB760970FB6F894DEBF3E
:1000F0000FBECDBF84E00E945300082F85E00E9410
:100100005300382F811131E040E050E0002311F01E
:1001100041E050E0CA01880F991F932F982B8091DE
:100120003F0120913E01882319F49130A9F40EC0BB
:10013000813019F49330E9F409C0833019F4923016
:1001400099F404C0823031F4992349F42F3FC1F06F
:100150002F5F14C0882331F4923091F40CC0933097
:1001600079F409C0833019F4913051F404C081301E
:1001700039F4992329F4222319F0215020933E01C8
:1001800090933F0180913E018093B3008DB79EB75D
:100190000A970FB6F8949EBF0FBE8DBFEDB7FEB79E
:1001A00031968E010F5F1F4FADB7BEB712961C93ED
:1001B0000E93119780E1E82EF12CF382E28280E029
:1001C00091E09583848357834683308711860E940C
:1001D00041028DB79EB70A960FB6F8949EBF0FBE28
:1001E0008DBF80E060E00E941902C8010E942C02CD
:1001F000ADB7BEB718970FB6F894BEBF0FBEADBF70
:10020000EDB7FEB7319612961C930E931197F382B9
:10021000E2828AE091E09583848380913E01868327
:1002200017820E9441028DB79EB708960FB6F894C8
:100230009EBF0FBE8DBF81E060E00E941902C80121
:100240000E942C0284EF91E020E931E0F90131971E
:10025000F1F70197D9F760960FB6F894DEBF0FBE9D
:10026000CDBFCF91DF911F910F91FF90EF90089537
:10027000EF92FF920F931F93DF93CF93CDB7DEB72B
:1002800060970FB6F894DEBF0FBECDBF87B18F7CED
:1002900087B988B1806388B9239A83E88093B000D6
:1002A00087E08093B1001092B3000E94F00180E0DB
:1002B00060E00E94190288E191E00E942C028DB753
:1002C0009EB70C970FB6F8949EBF0FBE8DBFEDB7CB
:1002D000FEB731967E010894E11CF11CADB7BEB7A4
:1002E0001296FC92EE92119700E110E013830283C4
:1002F00080E391E09583848381E090E09783868317
:100300008BE190E09187808783ED97E093878287E8
:100310000E944102F70101900020E9F73197EE19A0
:10032000FF098DB79EB70C960FB6F8949EBF0FBE0F
:100330008DBF0E1B1F0B1695079581E0602F0E9445
:100340001902C7010E942C0280E29EE420E931E0FC
:10035000F9013197F1F70197D9F781E00E94E001A7
:1003600060960FB6F894DEBF0FBECDBFCF91DF9180
:100370001F910F91FF90EF9008950E9438010E9405
:100380006C00FDCF9BB19F709BB99BB18295807F24
:10039000982B9BB9299A85E08A95F1F729980895B9
:1003A0001F93182F289A82958F700E94C201812F67
:1003B0000E94C20180E49FE10197F1F71F91089527
:1003C0001F93182F289882958F700E94C201812F49
:1003D0000E94C20180E49FE10197F1F71F91089507
:1003E00084B1836084B98AB1806F8AB980E69AEE5D
:1003F0000197F1F780E30E94C20180E29EE4019739
:10040000F1F780E30E94C20180EE91E00197F1F7DD
:1004100080E30E94C20180E20E94C20180E49FE169
:100420000197F1F788E20E94E0018CE00E94E00170
:100430000895813039F0813050F0823029F08330D6
:1004400051F404C0605C03C06C5E01C06C5A862F1E
:1004500080680E94E0010895CF93DF93EC0103C010
:1004600021960E94D00188818823D1F7DF91CF9116
:10047000089581E00E94E00180E49FE10197F1F797
:100480000895AEE0B0E0E7E4F2E00C94FD040D89DD
:100490001E898F89988D97FF02C080E090E80197B0
:1004A0009E838D831A83098386E08C839E01255E5B
:1004B0003F4FCE010196698D7A8DA9010E9472028B
:1004C0004D815E8157FD0AC02F8138854217530741
:1004D0000CF49A01020F131FF80110822E96E4E02B
:1004E0000C941905ABE0B0E0E8E7F2E00C94EF04FF
:1004F0003C012B015A01FC0117821682838181FD88
:1005000003C06FEF7FEFC6C19AE0892E1E010894E9
:10051000211C311CF3012381F20123FD859123FF6E
:1005200081912F01882309F4B2C1853239F423FD6A
:10053000859123FF81912F01853229F490E0B30149
:100540000E946504E7CF982FFF24EE249924FFE151
:10055000FF15D0F09B3269F09C3228F4903259F0AC
:10056000933291F40EC09D3249F0903369F441E02A
:1005700024C052E0F52A84E0F82A28C098E0F92A3D
:1005800025C0E0E1FE2A22C0F7FC29C0892F805354
:100590008A3070F4F6FE05C0989C902C1124980EB9
:1005A00015C0E89CE02C1124E80EF0E2FF2A0EC0F2
:1005B0009E3229F4F6FC6BC140E4F42A07C09C3655
:1005C00019F450E8F52A02C0983649F4F20123FDE7
:1005D000959123FF91912F01992309F0B8CF892F8D
:1005E0008554833018F08052833038F444E050E072
:1005F000A40EB51E5FE359830FC0933631F09337D5
:1006000079F0933509F056C020C0F50180818983C7
:1006100042E050E0A40EB51E610101E010E012C0FE
:10062000F501C080D180F6FC03C06FEF7FEF02C000
:10063000692D70E042E050E0A40EB51EC6010E9494
:100640005A048C015FE7F52214C0F501C080D18007
:10065000F6FC03C06FEF7FEF02C0692D70E042E04F
:1006600050E0A40EB51EC6010E944F048C0150E854
:10067000F52AF3FE07C01AC080E290E0B3010E94A1
:100680006504EA948E2D90E008171907A8F30EC0B0
:10069000F601F7FC8591F7FE81916F0190E0B301BF
:1006A0000E946504E110EA94015010400115110503
:1006B00079F7EAC0943611F0993669F5F7FE08C06B
:1006C000F501208131814281538184E090E00AC0AC
:1006D000F501808191819C01442737FD4095542F7D
:1006E00082E090E0A80EB91E9FE6F92257FF09C0EC
:1006F00050954095309521953F4F4F4F5F4FE0E823
:10070000FE2ACA01B901A1012AE030E00E94910449
:10071000D82ED21840C0953729F41F2D1F7E2AE00D
:1007200030E01DC01F2D197F9F3661F0903720F4F7
:10073000983509F0ACC00FC0903739F0983709F000
:10074000A6C004C028E030E00AC0106114FD1460A7
:1007500020E130E004C014FD166020E132E017FF14
:1007600008C0F501608171818281938144E050E08D
:1007700008C0F50180819181BC0180E090E042E0F9
:1007800050E0A40EB51EA1010E949104D82ED218EB
:100790008FE7F82EF122F6FE0BC05EEFF522D9149A
:1007A00038F4F4FE07C0F2FC05C08FEEF82202C058
:1007B0001D2D01C0192DF4FE0DC0FE01ED0DF11D22
:1007C0008081803319F499EEF92208C01F5FF2FE90
:1007D00005C003C08F2D867809F01F5F0F2DF3FC35
:1007E00014C0F0FE0FC01E1510F09D2C0BC09D2CE8
:1007F0009E0C911A1E2D06C080E290E0B3010E946B
:1008000065041F5F1E15C0F304C01E1510F4E11A25
:1008100001C0EE2404FF0FC080E390E0B3010E940A
:10082000650402FF1DC001FD03C088E790E00EC013
:1008300088E590E00BC0802F867891F001FF02C020
:100840008BE201C080E2F7FC8DE290E0B3010E94F0
:10085000650406C080E390E0B3010E9465049A94A9
:10086000D914C0F3DA94F101ED0DF11D808190E00F
:10087000B3010E946504DD20A9F706C080E290E084
:10088000B3010E946504EA94EE20C1F743CEF30160
:1008900066817781CB012B96E2E10C940B05FC017C
:1008A0000590615070400110D8F7809590958E0F9B
:1008B0009F1F0895FC016150704001900110D8F70E
:1008C000809590958E0F9F1F08950F931F93CF9340
:1008D000DF938C01EB018B8181FF1BC082FF0DC078
:1008E0002E813F818C819D812817390764F4E8812E
:1008F000F9810193F983E88306C0E885F985802FA3
:100900000995892B31F48E819F8101969F838E8377
:1009100002C00FEF1FEFC801DF91CF911F910F9120
:100920000895FA01AA27283051F1203181F1E89485
:100930006F936E7F6E5F7F4F8F4F9F4FAF4FB1E0D2
:100940003ED0B4E03CD0670F781F891F9A1FA11DCD
:10095000680F791F8A1F911DA11D6A0F711D811DCE
:10096000911DA11D20D009F468943F912AE0269F93
:1009700011243019305D3193DEF6CF010895462FF2
:100980004770405D4193B3E00FD0C9F7F6CF462FD3
:100990004F70405D4A3318F0495D31FD405241933C
:1009A00002D0A9F7EACFB4E0A695979587957795F9
:1009B0006795BA95C9F700976105710508959B0180
:1009C000AC010A2E06945795479537952795BA9509
:1009D000C9F7620F731F841F951FA01D08952F92E2
:1009E0003F924F925F926F927F928F929F92AF92BF
:1009F000BF92CF92DF92EF92FF920F931F93CF930C
:100A0000DF93CDB7DEB7CA1BDB0B0FB6F894DEBFA2
:100A10000FBECDBF09942A88398848885F846E84C8
:100A20007D848C849B84AA84B984C884DF80EE8012
:100A3000FD800C811B81AA81B981CE0FD11D0FB61B
:100A4000F894DEBF0FBECDBFED010895F894FFCF3F
:100A5000413D256420423D25640042726967687407
:100A60006E6573733D2564004A616E6E61204A6F46
:100A700079636520452E204A756D616F2D61730085
:0E0A8000253032642F253032642F25640000AB
:00000001FF
