:100000000C9434000C9446000C9446000C9446006A
:100010000C9446000C9446000C9446000C94460048
:100020000C9446000C9446000C9446000C94460038
:100030000C9446000C9446000C9446000C94460028
:100040000C9446000C9446000C9446000C94460018
:100050000C9446000C9446000C9446000C94460008
:100060000C9446000C94460011241FBECFEFD8E03C
:10007000DEBFCDBF11E0A0E0B1E001C01D92A53010
:10008000B107E1F70E94CB000C944E010C940000E4
:1000900080E480937C0086E880937A0008959091B4
:1000A0007C008770987F892B80937C0080917A00F8
:1000B000806480937A0080917A0086FDFCCF209145
:1000C000780030917900C901089580E00E944F00C6
:1000D0008639910528F4109201011092000110C098
:1000E00021E08E35920718F481E090E005C08C5B2A
:1000F000924030F482E090E09093010180930001FF
:100100008091030190910401C29690930401809321
:100110000301845F914030F11092040110920301B9
:100120008091000190910101009749F480910201B2
:1001300090E001966AE070E00E94270109C00197F3
:1001400089F480910201882311F489E001C0815073
:100150008093020182E00E94EE0080910201805DA6
:100160000E94DE0084EF91E020E931E0F90131974F
:10017000F1F70197D9F708950E94FE0081E00E94EF
:10018000EE0082E00E94EE0080E480937C0086E82E
:1001900080937A0008950E94BC000E946500FDCF04
:1001A0009BB19F709BB99BB18295807F982B9BB927
:1001B000299A85E08A95F1F7299808951F93182FB9
:1001C000289A82958F700E94D000812F0E94D000C3
:1001D00080E49FE10197F1F71F9108951F93182F75
:1001E000289882958F700E94D000812F0E94D000A5
:1001F00080E49FE10197F1F71F91089584B1836036
:1002000084B98AB1806F8AB980E69AEE0197F1F7D6
:1002100080E30E94D00080E29EE40197F1F780E342
:100220000E94D00088EB91E00197F1F780E30E94F3
:10023000D00080E20E94D00080E49FE10197F1F7B6
:1002400088E20E94EE008CE00E94EE00089597FB89
:10025000092E07260AD077FD04D00CD006D0002046
:100260001AF4709561957F4F0895F6F790958195F2
:100270009F4F0895AA1BBB1B51E107C0AA1FBB1FBC
:10028000A617B70710F0A61BB70B881F991F5A9522
:10029000A9F780959095BC01CD010895F894FFCF02
:00000001FF
