:100000000C9434000C9451000C9451000C94510049
:100010000C9453000C9451000C9451000C9451001A
:100020000C9451000C9451000C9451000C9451000C
:100030000C9451000C9451000C9451000C945100FC
:100040000C9451000C9451000C9451000C945100EC
:100050000C9451000C9451000C9451000C945100DC
:100060000C9451000C94510011241FBECFEFD8E026
:10007000DEBFCDBF11E0A0E0B1E0E4E5F9E002C0F1
:1000800005900D92A032B107D9F721E0A0E2B1E0CE
:1000900001C01D92A034B207E1F70E943B010C940D
:1000A000A8040C9400001F920F920FB60F92112417
:1000B0008F939F9386B181FB992790F990933F018D
:1000C00085FB882780F98093220180913C01811172
:1000D00010C080913F01882321F081E080933D0191
:1000E0002EC080912201882399F182E080933D0106
:1000F0000AC080913C01813091F480913F018111CF
:1001000008C010923D01809120019091210101973A
:100110001BC0809122018823D9F083E0DFCF80913A
:100120003C01823049F580913F01882311F083E042
:10013000DDCF8091220181110BC010923D01809191
:10014000200190912101019690932101809320013B
:1001500090913D0180913C01981739F081E08093A6
:100160003E0180913D0180933C019F918F910F90C2
:100170000FBE0F901F90189580913F01811102C012
:1001800082E0ACCF809122018111E2CF81E0AECF3D
:100190009BB19F709BB99BB1807F892B8BB9299AAA
:1001A000299A29980895CF93C82F28980E94C800AB
:1001B0008C2F8295807F0E94C8008FE39FE101977A
:1001C000F1F700C00000CF910895811104C080E8CC
:1001D000860F0C94D30080ECFBCF8AB1806F8AB974
:1001E00084B1836084B98FE59AEE0197F1F700C07E
:1001F000000080E30E94C8008FE19EE40197F1F7C0
:1002000000C0000080E30E94C8008FED91E00197DC
:10021000F1F700C0000080E30E94C80080E20E9465
:10022000C8008FE39FE10197F1F700C0000088E26A
:100230000E94D3008FE00C94D300CF93C82F289A4C
:100240000E94C8008C2F8295807F0E94C8008FE397
:100250009FE10197F1F700C00000CF910895CF937F
:10026000DF93EC018991811103C0DF91CF91089553
:100270000E941D01F7CF88B1826288B98FE99FE0A3
:100280000197F1F700C000008091680082608093C0
:10029000680080916C00826280936C0078940E9468
:1002A000ED0081E00E94D30080E091E00E942F01E8
:1002B00086B181FB992790F990933F0185FB8827B0
:1002C00080F98093220180912201811144C08091A4
:1002D0003F01811140C010923C0180913C0180930C
:1002E0003D0181E080933E010DE011E089E1F82EAF
:1002F000C3E2D1E080913E018823E1F310923E01F8
:10030000809120019091210140913C0130913F0169
:10031000209122019F938F931F924F931F923F939F
:100320001F922F931F930F931F92FF92DF93CF93F0
:100330000E94C30160E081E00E94E50083E291E059
:100340000E942F018DB79EB70E960FB6F8949EBFF0
:100350000FBE8DBFCFCF80912201811108C0809147
:100360003F01882321F081E080933C01B6CF80914A
:100370002201882331F080913F01811102C082E087
:10038000F3CF83E0F1CFAEE0B0E0E9ECF1E00C9424
:100390007F040D891E898F89988D26E02C831A830E
:1003A000098397FF02C080E090E801979E838D83C8
:1003B000AE01455E5F4F698D7A8DCE0101960E9438
:1003C000F3014D815E8157FD0AC02F8138854217A8
:1003D00053070CF49A01020F131FF80110822E9696
:1003E000E4E00C949B04ABE0B0E0E9EFF1E00C94A6
:1003F00071047C013B018A01FC0117821682838112
:1004000081FFC8C1CE0101965C01F7019381F30120
:1004100093FD859193FF81913F01882309F453C196
:10042000853239F493FD859193FF81913F018532A7
:1004300029F4B70190E00E94E303E7CF912C212C2F
:10044000312CFFE1F31538F08B3211F190F480324A
:1004500009F1833229F137FC3CC020ED280F2A3006
:1004600050F536FE20C08AE0989E200D1124922E71
:1004700006C08D3291F0803371F7689430F8F30143
:1004800093FD859193FF81913F018111DACF21C0C6
:10049000689431F8689432F8F2CF689433F8EFCF6B
:1004A000689434F8ECCFEAE02E9E200D1124222E21
:1004B000689435F8E4CF8E3229F436FC04C1689490
:1004C00036F8DDCF8C3619F4689437F8D8CF8836F3
:1004D000B1F2982F9F7D95549330E0F08336A1F1CF
:1004E0008337C1F1833509F063C02801F2E04F0E74
:1004F000511CF801C080D180692D70E036FC02C02B
:100500006FEF7FEFC6010E94CD034C01689437F86E
:1005100082010AC00C5F1F4FFFE3F9838824839494
:10052000912C6501E89437F833FE2DC0522C8114CC
:10053000910471F5552009F468CFB70180E290E08D
:100540000E94E3035A94F6CFF801808189830E5FFD
:100550001F4FE4CF2801F2E04F0E511CF801C0807C
:10056000D180692D70E036FC02C06FEF7FEFC601CD
:100570000E94D8034C018201D5CFB70180E290E000
:100580000E94E3032A942814190409F0B0F7CECF8F
:10059000F60137FC859137FE81916F01B70190E03C
:1005A0000E94E30351105A94F1E08F1A9108BFCFD3
:1005B000843619F0893609F077C0F80137FE6BC030
:1005C00060817181828193810C5F1F4FF32DFF76D3
:1005D0003F2E97FF09C090958095709561957F4F4C
:1005E0008F4F9F4F689437F82AE030E0A5010E94B2
:1005F0001304C82ECA188C2C432C36FE0CC0E89469
:1006000040F8C91440F434FE05C032FC03C0F32D99
:10061000FE7E4F2E892C44FE95C0FE01EC0DF11D8F
:100620008081803309F087C0242D297E422E842DBD
:100630008870582E43FC95C040FE8FC09C2C8214BD
:1006400018F42C0C922C981844FE91C0B70180E34A
:1006500090E00E94E30342FE09C088E790E041FE7B
:1006600002C088E590E0B7010E94E303C91408F4D2
:100670008AC0CA94D12C9FEFC91AD90ACA0CDB1CB4
:10068000F60182916F01B70190E00E94E303AC1480
:10069000BD04B1F74FCF60817181072E000C880B2C
:1006A000990B0E5F1F4F92CFD32CE894D4F82AE019
:1006B00030E0853739F1232D297FD22E8F3601F195
:1006C00048F48835A9F0F701868197812B96E2E1FD
:1006D0000C948D04803749F08837A9F7D4FE02C006
:1006E0006894D2F820E130E00DC06894D4F8F6CFD9
:1006F00034FE03C0822F8660D82E20E132E002C093
:1007000028E030E0F801D7FE0FC06081718182815E
:1007100093810C5F1F4FA5010E941304C82ECA18B5
:100720003D2CE89437F867CF6081718190E080E0DC
:100730000E5F1F4FF0CF42FC02C0839478CF8394AA
:10074000839475CF842D867809F471CFF6CFB701E5
:1007500080E290E00E94E30383948214C0F3512C62
:1007600073CF522C5818821408F46ECFF8CF842D12
:10077000867809F47BCF8BE241FE80E247FC8DE274
:10078000B70190E071CFB70180E390E00E94E303EE
:100790009A946CCF8FEF9FEF99CFFC010590615039
:1007A00070400110D8F7809590958E0F9F1F089587
:1007B000FC016150704001900110D8F78095909530
:1007C0008E0F9F1F08950F931F93CF93DF93182FC2
:1007D000092FEB018B8181FD09C01FEF0FEF812FE6
:1007E000902FDF91CF911F910F91089582FF14C038
:1007F0002E813F818C819D81281739073CF4E88147
:10080000F981CF0101969983888310838E819F811E
:1008100001969F838E83E3CFE885F985812F099523
:10082000892BA1F3DACFFA01AA27283051F1203120
:1008300081F1E8946F936E7F6E5F7F4F8F4F9F4F74
:10084000AF4FB1E03ED0B4E03CD0670F781F891FB6
:100850009A1FA11D680F791F8A1F911DA11D6A0F84
:10086000711D811D911DA11D20D009F468943F9137
:100870002AE0269F11243019305D3193DEF6CF0136
:100880000895462F4770405D4193B3E00FD0C9F7FC
:10089000F6CF462F4F70405D4A3318F0495D31FD69
:1008A0004052419302D0A9F7EACFB4E0A6959795BC
:1008B000879577956795BA95C9F700976105710592
:1008C00008959B01AC010A2E0694579547953795DC
:1008D0002795BA95C9F7620F731F841F951FA01D36
:1008E00008952F923F924F925F926F927F928F92D4
:1008F0009F92AF92BF92CF92DF92EF92FF920F93AF
:100900001F93CF93DF93CDB7DEB7CA1BDB0B0FB6B8
:10091000F894DEBF0FBECDBF09942A883988488875
:100920005F846E847D848C849B84AA84B984C8840B
:10093000DF80EE80FD800C811B81AA81B981CE0F02
:10094000D11D0FB6F894DEBF0FBECDBFED010895E7
:04095000F894FFCF49
:10095400456E636F646572205465737400423D256F
:100964006420413D256420533D25642025346400E2
:00000001FF
