:100000000C9434000C9449000C9449000C94490061
:100010000C9449000C9449000C9449000C9449003C
:100020000C9449000C9449000C9449000C9449002C
:100030000C9449000C9449000C9449000C9449001C
:100040000C9449000C9449000C9449000C9449000C
:100050000C9449000C9449000C9449000C944900FC
:100060000C9449000C94490011241FBECFEFD8E036
:10007000DEBFCDBF11E0A0E0B1E0E2E0F2E002C0FF
:1000800005900D92AC30B107D9F70E94BE000C94D8
:10009000FF000C9400009BB19F709BB99BB1807FC7
:1000A000892B8BB9299A299A29980895CF93C82F1B
:1000B00028980E944B008C2F8295807F0E944B00D5
:1000C0008FE39FE10197F1F700C00000CF91089501
:1000D000811104C080E8860F0C94560080ECFBCFA1
:1000E0008AB1806F8AB984B1836084B98FE59AEE52
:1000F0000197F1F700C0000080E30E944B008FE100
:100100009EE40197F1F700C0000080E30E944B00DD
:100110008FED91E00197F1F700C0000080E30E94AD
:100120004B0080E20E944B008FE39FE10197F1F7C3
:1001300000C0000088E20E9456008FE00C94560038
:10014000CF93C82F289A0E944B008C2F8295807FD6
:100150000E944B008FE39FE10197F1F700C0000080
:10016000CF910895CF93DF93EC018991811103C062
:10017000DF91CF9108950E94A000F7CF0E947000F8
:1001800081E00E94560080E091E00E94B200249A33
:1001900082E490E02C9AEFE9FBE33197F1F700C09D
:1001A00000002C98EFE9FBE33197F1F700C0000065
:1001B000019781F783E890E02C9AEFECFDE131970D
:1001C000F1F700C000002C98EFECFDE13197F1F75A
:1001D00000C00000019781F786E091E02C9AE7EEDD
:1001E000FEE03197F1F700C000002C98EFE0FFE04F
:1001F0003197F1F700C00000019781F7C9CFF8945B
:02020000FFCF2E
:0C02020042757A7A6572205465737400AE
:00000001FF
