:100000000C9434000C9451000C9451000C94510049
:100010000C947F010C9451000C9451000C945100ED
:100020000C9451000C9451000C9451000C9451000C
:100030000C9451000C9451000C9451000C945100FC
:100040000C9451000C9451000C9451000C945100EC
:100050000C9451000C9451000C9451000C945100DC
:100060000C9451000C94510011241FBECFEFD8E026
:10007000DEBFCDBF12E0A0E0B1E0EEEFF9E102C0DB
:1000800005900D92A233B107D9F712E0A2E3B2E0D6
:1000900001C01D92A833B107E1F70E940A020C9437
:1000A000FD0C0C9400002F923F924F925F926F9242
:1000B0007F928F929F92AF92BF92CF92DF92EF92F8
:1000C000FF920F931F93DF93CF93CDB7DEB728979F
:1000D0000FB6F894DEBF0FBECDBF9A838983009719
:1000E00009F4F4C09C0140E050E060E472E48FE069
:1000F00090E00E94DB093695279518861F82C9017A
:10010000A0E0B0E08B839C83AD83BE83D7C02C9AE4
:100110006B817C818D819E810E946D071B012C016A
:100120002BEA3AEA4AEA50E40E94E3045B016C01DC
:1001300020E030E040E85FE30E94E906882314F401
:1001400061E053C0C601B50120E030E04FE753E461
:100150000E94890618160CF044C0C201B10120E0CB
:1001600030E04AE754E40E94DD053B014C0120E009
:1001700030E04AE755E40E94E3047B018C0120E073
:1001800030E040E85FE30E94E90688231CF461E068
:1001900070E023C0C801B70120E03FEF4FE757E40C
:1001A0000E9489061816ACF4C401B30120E030E0C7
:1001B00040E251E40E94E3040E940D0306C080E97E
:1001C00091E00197F1F76150704061157105B9F741
:1001D0000EC0C801B7010E940D03CB010197F1F7D2
:1001E00006C0C601B5010E940D036A95F1F72C986F
:1001F000C601B50120E030E040E85FE30E94E90677
:10020000882314F461E053C0C601B50120E030E05A
:100210004FE753E40E94890618160CF044C0C2014F
:10022000B10120E030E04AE754E40E94DD055B01C3
:100230006C0120E030E04AE755E40E94E3047B01D2
:100240008C0120E030E040E85FE30E94E90688236B
:100250001CF461E070E023C0C801B70120E03FEF6B
:100260004FE757E40E9489061816ACF4C601B501A1
:1002700020E030E040E251E40E94E3040E940D03DC
:1002800006C080E991E00197F1F761507040611577
:100290007105B9F70EC0C801B7010E940D03CB016B
:1002A0000197F1F706C0C601B5010E940D036A95DA
:1002B000F1F7AF81B8851196B887AF83EF81F885E4
:1002C00029813A81E217F30708F421CF28960FB667
:1002D000F894DEBF0FBECDBFCF91DF911F910F917C
:1002E000FF90EF90DF90CF90BF90AF909F908F9056
:1002F0007F906F905F904F903F902F9008951F9246
:100300000F920FB60F9211242F938F939F9326B1C4
:1003100086B1227090E0689414F8969587951694AB
:10032000E1F78170282B209335029091350280915E
:100330003402981791F180913402882321F480913E
:1003400035028130C1F080913402813021F48091F6
:100350003502833081F080913402833021F4809122
:100360003502823041F080913402823051F4809124
:100370003502882331F48091320290913302019644
:1003800005C080913202909133020197909333021D
:100390008093320281E0809337028091350280930E
:1003A00034029F918F912F910F900FBE0F901F904D
:1003B0001895249A87B18D7D87B988B1826288B9F2
:1003C0008091680082608093680080916C008262F6
:1003D00080936C000E94BC020E94050380E060E0F4
:1003E0000E94E50280E091E00E94F80281E060E076
:1003F0000E94E50286E091E00E94F80280E197E227
:1004000020E931E0F9013197F1F70197D9F70E941E
:1004100005030895BF92CF92DF92EF92FF920F9360
:100420001F93DF93CF93CDB7DEB760970FB6F894E5
:10043000DEBF0FBECDBF0E94D90178948E010F5F41
:100440001F4F20E1C22ED12C95E1E92E91E0F92E2B
:10045000BB24B394809137028823E1F310923702D2
:1004600080913202909133022DB73EB72850304030
:100470000FB6F8943EBF0FBE2DBFEDB7FEB7319655
:10048000ADB7BEB712961C930E931197D382C2825A
:10049000F582E482978386830E944F0A2DB73EB788
:1004A000285F3F4F0FB6F8943EBF0FBE2DBF0E948E
:1004B000050380E060E00E94E502C8010E94F802A6
:1004C0004091320250913302209132023091330236
:1004D00037FF03C0309521953F4F27703070232B95
:1004E00009F0B8CF80913602882309F0B3CFB092DB
:1004F0003602FA0157FF03C0F095E195FF4FF695DC
:10050000E795F695E795EE70F070E75EFE4F808117
:1005100091810E945300109236029CCF9BB19F7034
:100520009BB99BB18295807F982B9BB9299A85E0D6
:100530008A95F1F7299808951F93182F289A829584
:100540008F700E948E02812F0E948E0280E49FE1B4
:100550000197F1F71F9108951F93182F28988295FE
:100560008F700E948E02812F0E948E0280E49FE194
:100570000197F1F71F91089584B1836084B98AB11E
:10058000806F8AB980E69AEE0197F1F780E30E94C6
:100590008E0280E29EE40197F1F780E30E948E02D2
:1005A00080EE91E00197F1F780E30E948E0280E2F5
:1005B0000E948E0280E49FE10197F1F788E20E9499
:1005C000AC028CE00E94AC020895813039F0813099
:1005D00050F0823029F0833051F404C0605C03C0D5
:1005E0006C5E01C06C5A862F80680E94AC02089530
:1005F000CF93DF93EC0103C021960E949C02888177
:100600008823D1F7DF91CF91089581E00E94AC0259
:1006100080E49FE10197F1F70895EF92FF920F9325
:100620001F937B018C0120E030E040E05FE40E94FA
:10063000B90688238CF0C801B70120E030E040E023
:100640005FE40E9485040E9419079B01AC012050C1
:1006500030404040504806C0C801B7010E94190709
:100660009B01AC01B901CA011F910F91FF90EF905E
:100670000895A0E0B0E0EFE3F3E00C94180ADC0189
:100680002B01FA019C91923008F439C1EB01888169
:10069000823008F433C1943069F4843009F02FC1FA
:1006A00011969C9111978981981709F428C1A9E2A4
:1006B000B1E025C1843009F421C18230A9F492301F
:1006C00009F01DC19A01AD0188E0EA010990AE016F
:1006D000E90109929E018150C1F7E20189811196D9
:1006E0009C918923818308C1923009F407C1129635
:1006F0002D903C901397EB018A819B811496AD90CD
:10070000BD90CD90DC901797EC80FD800E811F810D
:100710009101281B390BB90137FF04C066277727E1
:10072000621B730B603271050CF061C01216130668
:100730006CF537014801062E04C09694879477948F
:1007400067940A94D2F721E030E040E050E004C022
:10075000220F331F441F551F6A95D2F72150304096
:10076000404050402E213F21402351232115310587
:100770004105510521F021E030E040E050E07901F1
:100780008A01E628F728082919293CC0232BD1F132
:10079000260E371E35014601062E04C09694879416
:1007A000779467940A94D2F721E030E040E050E07B
:1007B00004C0220F331F441F551F6A95D2F72150E2
:1007C0003040404050402A213B214C215D212115E1
:1007D00031054105510521F021E030E040E050E0D5
:1007E00059016A01A628B728C828D9280BC0821544
:1007F00093052CF01C01AA24BB24650103C0EE2440
:10080000FF24870111969C91D20111968C91981723
:1008100009F445C0992339F0A80197012A193B0929
:100820004C095D0906C0A60195012E193F09400B30
:10083000510B57FD08C011823382228224833583F5
:10084000468357831DC081E08183338222828827BB
:100850009927DC01821B930BA40BB50B8483958332
:10086000A683B7830DC0220F331F441F551F248357
:100870003583468357838281938101979383828353
:100880002481358146815781DA01C9010197A10987
:10089000B1098F5F9F4FAF4FBF4328F30BC09183C8
:1008A00033822282EA0CFB1C0C1D1D1DE482F582A2
:1008B0000683178383E080832481358146815781B5
:1008C00057FF1AC0C901AA2797FDA095BA2F8170BA
:1008D0009070A070B0705695479537952795822BEC
:1008E000932BA42BB52B84839583A683B783828116
:1008F0009381019693838283DF0101C0D201CD01F0
:10090000CDB7DEB7E2E10C94340AA0E2B0E0EBE848
:10091000F4E00C94240A69837A838B839C832D836F
:100920003E834F835887E9E0EE2EF12CEC0EFD1E3E
:10093000CE010196B7010E940A098E010F5E1F4F7A
:10094000CE010596B8010E940A098A8991E089279B
:100950008A8BC701B801AE01475E5F4F0E94390321
:100960000E943508A096E6E00C94400AA0E2B0E0B0
:10097000ECEBF4E00C94240A69837A838B839C83E8
:100980002D833E834F835887F9E0EF2EF12CEC0E38
:10099000FD1ECE010196B7010E940A098E010F5E6D
:1009A0001F4FCE010596B8010E940A09C701B80180
:1009B000AE01475E5F4F0E9439030E943508A09642
:1009C000E6E00C94400AA0E2B0E0E9EEF4E00C941A
:1009D000180A69837A838B839C832D833E834F839C
:1009E0005887CE010196BE01675F7F4F0E940A09BA
:1009F000CE010596BE016F5E7F4F0E940A09998560
:100A0000923088F089898230C8F0943019F48230AD
:100A100051F404C0843029F4923081F489E291E0E9
:100A2000C6C0923049F420E09A858A89981321E063
:100A30002A87CE010996BBC0823049F420E09A850E
:100A40008A89981321E02A8BCE014196B0C02D846B
:100A50003E844F8458886D887E888F88988CEE24D9
:100A6000FF248701AA24BB24650140E050E060E038
:100A700070E0E0E0F0E0C10181709070892BE9F056
:100A8000E60CF71C081D191D9A01AB012A0D3B1D30
:100A90004C1D5D1D80E090E0A0E0B0E0E614F7049E
:100AA0000805190520F481E090E0A0E0B0E0BA016B
:100AB000A901480F591F6A1F7B1FAA0CBB1CCC1C25
:100AC000DD1C97FE08C081E090E0A0E0B0E0A82A1D
:100AD000B92ACA2ADB2A3196E032F10549F0660CC0
:100AE000771C881C991C5694479437942794C3CF3D
:100AF000FA85EA892B893C898B859C85280F391FCB
:100B00002E5F3F4F17C0CA0181709070892B61F032
:100B100016950795F794E79480E090E0A0E0B0E8A0
:100B2000E82AF92A0A2B1B2B769567955795479546
:100B30002F5F3F4F77FDE7CF0CC0440F551F661F57
:100B4000771F17FD4160EE0CFF1C001F111F215085
:100B50003040403090E0590790E0690790E4790711
:100B600060F32B8F3C8FDB01CA018F779070A070F0
:100B7000B07080349105A105B10561F447FD0AC04C
:100B8000E114F1040105110529F0405C5F4F6F4F3E
:100B90007F4F40781A8EFE1711F081E08A8F4D8FBB
:100BA0005E8F6F8F78A383E0898FCE0149960E9474
:100BB0003508A096E2E10C94340AA8E1B0E0E3EE37
:100BC000F5E00C94200A69837A838B839C832D83C0
:100BD0003E834F835887B9E0EB2EF12CEC0EFD1EBF
:100BE000CE010196B7010E940A098E010F5E1F4FC8
:100BF000CE010596B8010E940A092985223008F421
:100C00007EC03989323010F4B8017CC08A859A8957
:100C100089278A87243011F0223031F4231709F014
:100C20006EC069E271E06EC0343039F41D861E86F4
:100C30001F86188A1C861B8604C0323021F484E08B
:100C40008987B7015FC02B853C858B899C89281BD0
:100C5000390B3C872B87ED84FE840F851889AD887E
:100C6000BE88CF88D88CEA14FB040C051D0540F41F
:100C7000EE0CFF1C001F111F215030403C872B87BA
:100C800020E030E040E050E080E090E0A0E0B0E420
:100C900060E070E0EA14FB040C051D0540F0282B11
:100CA000392B4A2B5B2BEA18FB080C091D09B6955A
:100CB000A79597958795EE0CFF1C001F111F6F5F7E
:100CC0007F4F6F31710531F7DA01C9018F7790706D
:100CD000A070B07080349105A105B10561F427FDC5
:100CE0000AC0E114F1040105110529F0205C3F4F11
:100CF0004F4F5F4F20782D873E874F87588BBE011F
:100D0000675F7F4FCB010E9435086896EAE00C943C
:100D10003C0AA8E1B0E0EFE8F6E00C94240A69830D
:100D20007A838B839C832D833E834F83588789E00E
:100D3000E82EF12CEC0EFD1ECE010196B7010E94AB
:100D40000A098E010F5E1F4FCE010596B8010E9461
:100D50000A098985823040F08989823028F0C701EC
:100D6000B8010E94820901C08FEF6896E6E00C94FA
:100D7000400AA8E1B0E0EFEBF6E00C94240A6983A6
:100D80007A838B839C832D833E834F83588789E0AE
:100D9000E82EF12CEC0EFD1ECE010196B7010E944B
:100DA0000A098E010F5E1F4FCE010596B8010E9401
:100DB0000A098985823040F08989823028F0C7018C
:100DC000B8010E94820901C08FEF6896E6E00C949A
:100DD000400AA8E1B0E0EFEEF6E00C94240A698343
:100DE0007A838B839C832D833E834F83588789E04E
:100DF000E82EF12CEC0EFD1ECE010196B7010E94EB
:100E00000A098E010F5E1F4FCE010596B8010E94A0
:100E10000A098985823040F08989823028F0C7012B
:100E2000B8010E94820901C081E06896E6E00C9456
:100E3000400AACE0B0E0EFE1F7E00C94280A6983E7
:100E40007A838B839C83CE010196BE016B5F7F4FBB
:100E50000E940A098D81823061F1823050F1843024
:100E600021F48E81882351F12EC02F81388537FDE2
:100E700020C06E812F3131051CF06623F9F023C0AC
:100E80008EE190E0821B930B29853A854B855C852A
:100E900004C056954795379527958A95D2F76623CE
:100EA000B1F050954095309521953F4F4F4F5F4F92
:100EB0000EC020E030E040E050E009C02FEF3FEFEF
:100EC0004FEF5FE704C020E030E040E050E8B901B8
:100ED000CA012C96E2E00C94440AA8E0B0E0E3E7F3
:100EE000F7E00C94200A7B018C01611571058105E6
:100EF000910519F482E0898360C083E089838EE1E3
:100F0000C82ED12CDC82CB82ED82FE820F83188723
:100F1000C801B7010E94E607FC013197F7FF3BC00B
:100F2000222733272E1B3F0B57016801022E04C0D6
:100F3000D694C794B794A7940A94D2F740E050E0AF
:100F400060E070E081E090E0A0E0B0E004C0880FD5
:100F5000991FAA1FBB1F2A95D2F70197A109B109B2
:100F60008E219F21A023B1230097A105B10521F077
:100F700041E050E060E070E04A295B296C297D295E
:100F80004D835E836F8378878EE190E08E1B9F0B8D
:100F90009C838B8312C0309781F00E2E04C0EE0C20
:100FA000FF1C001F111F0A94D2F7ED82FE820F83EF
:100FB0001887CE1ADF0ADC82CB821A82CE01019614
:100FC0000E9435082896EAE00C943C0AEF92FF92C2
:100FD0000F931F937B018C0180E0E81680E0F806F8
:100FE00081E0080780E0180788F48FEFE816F10425
:100FF0000105110531F028F088E090E0A0E0B0E0B4
:1010000017C080E090E0A0E0B0E012C080E0E816F9
:1010100080E0F80680E0080781E0180728F088E102
:1010200090E0A0E0B0E004C080E190E0A0E0B0E09B
:1010300020E230E040E050E0281B390B4A0B5B0B0C
:1010400004C016950795F794E7948A95D2F7F701AF
:10105000EF5CFE4F8081281B310941095109C9010C
:101060001F910F91FF90EF900895DF92EF92FF9202
:101070000F931F93FC01E480F58006811781D180D6
:101080008081823048F480E090E0A0E1B0E0E82A7E
:10109000F92A0A2B1B2BA5C0843009F49FC082308B
:1010A00021F4EE24FF24870105C0E114F1040105B9
:1010B000110519F4E0E0F0E096C0628173819FEFC2
:1010C000623879070CF05BC022E83FEF261B370B34
:1010D0002A3131052CF020E030E040E050E02AC019
:1010E000B801A701022E04C07695679557954795DC
:1010F0000A94D2F781E090E0A0E0B0E004C0880F4D
:10110000991FAA1FBB1F2A95D2F70197A109B10900
:101110008E219F21A023B1230097A105B10521F0C5
:1011200081E090E0A0E0B0E09A01AB01282B392BE0
:101130004A2B5B2BDA01C9018F779070A070B070D9
:1011400080349105A105B10539F427FF09C0205C61
:101150003F4F4F4F5F4F04C0215C3F4F4F4F5F4F9A
:10116000E0E0F0E02030A0E03A07A0E04A07A0E489
:101170005A0710F0E1E0F0E079018A0127C06038F9
:10118000710564F5FB01E158FF4FD801C7018F7766
:101190009070A070B07080349105A105B10539F44C
:1011A000E7FE0DC080E490E0A0E0B0E004C08FE373
:1011B00090E0A0E0B0E0E80EF91E0A1F1B1F17FF29
:1011C00005C016950795F794E794319687E0169534
:1011D0000795F794E7948A95D1F705C0EE24FF248C
:1011E0008701EFEFF0E06E2F679566276795902FE8
:1011F0009F77D794DD24D7948E2F8695492F462B41
:10120000582F5D29B701CA011F910F91FF90EF90F0
:10121000DF900895FC01DB01408151812281622F22
:101220006F7770E0221F2227221F9381892F880F5A
:10123000822B282F30E0991F9927991F11969C9394
:10124000119721153105A9F5411551056105710564
:1012500011F482E037C082E89FEF13969C938E933F
:1012600012979A01AB0167E0220F331F441F551FED
:101270006A95D1F783E08C930DC0220F331F441F72
:10128000551F12968D919C911397019713969C93DD
:101290008E931297203080E0380780E0480780E482
:1012A000580758F314962D933D934D935C931797DD
:1012B00008952F3F310579F44115510561057105F8
:1012C00019F484E08C93089564FF03C081E08C934B
:1012D00012C01C9210C02F57304013963C932E938F
:1012E000129783E08C9387E0440F551F661F771F8A
:1012F0008A95D1F7706414964D935D936D937C93AA
:10130000179708951F93DC01FB019C91923008F41C
:1013100047C08081823008F443C0943051F4119664
:101320001C91843099F58181682F70E0611B7109EF
:101330003FC0843021F0923031F48230B9F18181A4
:10134000882389F12DC011961C9111978230F1F0FC
:1013500081811817D9F412962D913C9113978281AF
:1013600093818217930794F028173907BCF01496DD
:101370008D919D910D90BC91A02D24813581468148
:101380005781281739074A075B0718F4112341F0E2
:101390000AC082179307A407B50740F4112319F078
:1013A00061E070E005C06FEF7FEF02C060E070E0C9
:1013B000CB011F91089597FB092E05260ED057FDEE
:1013C00004D014D00AD0001C38F4509540953095C4
:1013D00021953F4F4F4F5F4F0895F6F790958095B9
:1013E000709561957F4F8F4F9F4F0895A1E21A2E00
:1013F000AA1BBB1BFD010DC0AA1FBB1FEE1FFF1FB9
:10140000A217B307E407F50720F0A21BB30BE40B08
:10141000F50B661F771F881F991F1A9469F760954F
:101420007095809590959B01AC01BD01CF01089509
:101430002F923F924F925F926F927F928F929F92E4
:10144000AF92BF92CF92DF92EF92FF920F931F93D2
:10145000CF93DF93CDB7DEB7CA1BDB0B0FB6F89483
:10146000DEBF0FBECDBF09942A88398848885F84C3
:101470006E847D848C849B84AA84B984C884DF8034
:10148000EE80FD800C811B81AA81B981CE0FD11D18
:101490000FB6F894DEBF0FBECDBFED010895AEE0EC
:1014A000B0E0E5E5FAE00C94260A0D891E898F89E3
:1014B000988D97FF02C080E090E801979E838D830E
:1014C0001A83098386E08C839E01255E3F4FCE01FF
:1014D0000196698D7A8DA9010E94800A4D815E81F5
:1014E00057FD0AC02F813885421753070CF49A0123
:1014F000020F131FF80110822E96E4E00C94420AAA
:10150000ABE0B0E0E6E8FAE00C94180A3C012B01ED
:101510005A01FC0117821682838181FD03C06FEF9F
:101520007FEFC6C19AE0892E1E010894211C311C50
:10153000F3012381F20123FD859123FF81912F0186
:10154000882309F4B2C1853239F423FD859123FF44
:1015500081912F01853229F490E0B3010E94730C30
:10156000E7CF982FFF24EE249924FFE1FF15D0F058
:101570009B3269F09C3228F4903259F0933291F406
:101580000EC09D3249F0903369F441E024C052E02E
:10159000F52A84E0F82A28C098E0F92A25C0E0E17D
:1015A000FE2A22C0F7FC29C0892F80538A3070F4AC
:1015B000F6FE05C0989C902C1124980E15C0E89C4E
:1015C000E02C1124E80EF0E2FF2A0EC09E3229F42E
:1015D000F6FC6BC140E4F42A07C09C3619F450E8CD
:1015E000F52A02C0983649F4F20123FD959123FFB4
:1015F00091912F01992309F0B8CF892F8554833019
:1016000018F08052833038F444E050E0A40EB51E48
:101610005FE359830FC0933631F0933779F09335F8
:1016200009F056C020C0F5018081898342E050E076
:10163000A40EB51E610101E010E012C0F501C080EA
:10164000D180F6FC03C06FEF7FEF02C0692D70E020
:1016500042E050E0A40EB51EC6010E94680C8C0149
:101660005FE7F52214C0F501C080D180F6FC03C00D
:101670006FEF7FEF02C0692D70E042E050E0A40EF2
:10168000B51EC6010E945D0C8C0150E8F52AF3FEE0
:1016900007C01AC080E290E0B3010E94730CEA9484
:1016A0008E2D90E008171907A8F30EC0F601F7FC7D
:1016B0008591F7FE81916F0190E0B3010E94730C58
:1016C000E110EA94015010400115110579F7EAC0C4
:1016D000943611F0993669F5F7FE08C0F5012081BE
:1016E00031814281538184E090E00AC0F50180811C
:1016F00091819C01442737FD4095542F82E090E072
:10170000A80EB91E9FE6F92257FF09C050954095D3
:10171000309521953F4F4F4F5F4FE0E8FE2ACA01B9
:10172000B901A1012AE030E00E949F0CD82ED21806
:1017300040C0953729F41F2D1F7E2AE030E01DC0E0
:101740001F2D197F9F3661F0903720F4983509F0EE
:10175000ACC00FC0903739F0983709F0A6C004C06C
:1017600028E030E00AC0106114FD146020E130E090
:1017700004C014FD166020E132E017FF08C0F50137
:10178000608171818281938144E050E008C0F5015D
:1017900080819181BC0180E090E042E050E0A40EA5
:1017A000B51EA1010E949F0CD82ED2188FE7F82EEB
:1017B000F122F6FE0BC05EEFF522D91438F4F4FEE8
:1017C00007C0F2FC05C08FEEF82202C01D2D01C03B
:1017D000192DF4FE0DC0FE01ED0DF11D8081803349
:1017E00019F499EEF92208C01F5FF2FE05C003C08C
:1017F0008F2D867809F01F5F0F2DF3FC14C0F0FECB
:101800000FC01E1510F09D2C0BC09D2C9E0C911A24
:101810001E2D06C080E290E0B3010E94730C1F5F92
:101820001E15C0F304C01E1510F4E11A01C0EE2409
:1018300004FF0FC080E390E0B3010E94730C02FF2D
:101840001DC001FD03C088E790E00EC088E590E070
:101850000BC0802F867891F001FF02C08BE201C09F
:1018600080E2F7FC8DE290E0B3010E94730C06C0A9
:1018700080E390E0B3010E94730C9A94D914C0F3F2
:10188000DA94F101ED0DF11D808190E0B3010E9429
:10189000730CDD20A9F706C080E290E0B3010E943E
:1018A000730CEA94EE20C1F743CEF3016681778191
:1018B000CB012B96E2E10C94340AFC0105906150B7
:1018C00070400110D8F7809590958E0F9F1F089556
:1018D000FC016150704001900110D8F780959095FF
:1018E0008E0F9F1F08950F931F93CF93DF938C014B
:1018F000EB018B8181FF1BC082FF0DC02E813F81D8
:101900008C819D812817390764F4E881F98101935E
:10191000F983E88306C0E885F985802F0995892B2E
:1019200031F48E819F8101969F838E8302C00FEFD9
:101930001FEFC801DF91CF911F910F910895FA0118
:10194000AA27283051F1203181F1E8946F936E7FFE
:101950006E5F7F4F8F4F9F4FAF4FB1E03ED0B4E0EF
:101960003CD0670F781F891F9A1FA11D680F791F30
:101970008A1F911DA11D6A0F711D811D911DA11D41
:1019800020D009F468943F912AE0269F1124301951
:10199000305D3193DEF6CF010895462F4770405DEC
:1019A0004193B3E00FD0C9F7F6CF462F4F70405D9B
:1019B0004A3318F0495D31FD4052419302D0A9F7F6
:1019C000EACFB4E0A6959795879577956795BA95F0
:1019D000C9F700976105710508959B01AC010A2EB6
:1019E00006945795479537952795BA95C9F7620F8D
:0E19F000731F841F951FA01D0895F894FFCF4C
:1019FE004C61622033004A616E6E61204A756D61E2
:101A0E006F2D61730020256400060126014A015DD9
:101A1E00018801B801EE010B020000000000000079
:101A2E00000001020203030303040404040404047B
:101A3E000405050505050505050505050505050549
:101A4E000506060606060606060606060606060629
:101A5E000606060606060606060606060606060618
:101A6E0006070707070707070707070707070707F9
:101A7E0007070707070707070707070707070707E8
:101A8E0007070707070707070707070707070707D8
:101A9E0007070707070707070707070707070707C8
:101AAE0007080808080808080808080808080808A9
:101ABE000808080808080808080808080808080898
:101ACE000808080808080808080808080808080888
:101ADE000808080808080808080808080808080878
:101AEE000808080808080808080808080808080868
:101AFE000808080808080808080808080808080858
:101B0E000808080808080808080808080808080847
:101B1E000808080808080808080808080808080837
:021B2E000800AD
:00000001FF
