:100000000C9434000C9451000C9451000C94510049
:100010000C9454000C9451000C9451000C94510019
:100020000C9451000C9451000C9451000C9451000C
:100030000C9451000C9451000C9451000C945100FC
:100040000C9451000C9451000C9451000C945100EC
:100050000C9451000C9451000C9451000C945100DC
:100060000C9451000C94510011241FBECFEFD8E026
:10007000DEBFCDBF11E0A0E0B1E0ECEAF9E002C0E4
:1000800005900D92A632B107D9F711E0A6E2B1E0D2
:1000900001C01D92A732B107E1F70E946C010C94D8
:1000A000D4040C94000008951F920F920FB60F9283
:1000B0001124EF92FF920F932F933F934F935F93EF
:1000C0006F937F938F939F93AF93BF93EF93FF9320
:1000D000DF93CF93CDB7DEB76097DEBFCDBF06B15C
:1000E00086B1027090E025E0969587952A95E1F714
:1000F0008170082B80912601081709F45DC080915A
:100100002601882311F4013091F08091260181307D
:1001100011F4033061F080912601833011F4023034
:1001200031F080912601823041F4002331F4809136
:10013000230190912401019605C0809123019091A3
:10014000240101979093240180932301209123019E
:10015000309124018DB79EB708970FB6F8949EBFD3
:100160000FBE8DBFEDB7FEB731967E010894E11C3E
:10017000F11CADB7BEB71296FC92EE92119780E1DA
:1001800090E09383828380E091E09583848337833A
:1001900026830E94EF018DB79EB708960FB6F8949C
:1001A0009EBF0FBE8DBF0E94E70180E060E00E940D
:1001B000C701C7010E94DA01009326016096DEBFE5
:1001C000CDBFCF91DF91FF91EF91BF91AF919F9103
:1001D0008F917F916F915F914F913F912F910F91EF
:1001E000FF90EF900F900FBE0F901F9018950F93F8
:1001F0001F93DF93CF93CDB7DEB760970FB6F89418
:10020000DEBF0FBECDBF87B18D7D87B988B1826259
:1002100088B98091680082608093680080916C004A
:10022000826280936C000E949E010E94E70180E040
:1002300060E00E94C70184E091E00E94DA0181E061
:1002400060E00E94C7018AE091E00E94DA0180E14B
:1002500097E220E931E0F9013197F1F70197D9F7F9
:100260000E94E70120912301309124018DB79EB7B0
:1002700008970FB6F8949EBF0FBE8DBFEDB7FEB7BF
:1002800031968E010F5F1F4FADB7BEB712961C930C
:100290000E93119780E190E09383828389E191E04E
:1002A00095838483378326830E94EF018DB79EB7A1
:1002B00008960FB6F8949EBF0FBE8DBFC8010E946E
:1002C000DA0160960FB6F894DEBF0FBECDBFCF91B6
:1002D000DF911F910F9108950E94F7007894FFCF4E
:1002E0009BB19F709BB99BB18295807F982B9BB9E6
:1002F000299A85E08A95F1F7299808951F93182F78
:10030000289A82958F700E947001812F0E9470013F
:1003100080E49FE10197F1F71F9108951F93182F33
:10032000289882958F700E947001812F0E94700121
:1003300080E49FE10197F1F71F91089584B18360F4
:1003400084B98AB1806F8AB980E69AEE0197F1F795
:1003500080E30E94700180E29EE40197F1F780E360
:100360000E94700180EE91E00197F1F780E30E9416
:10037000700180E20E94700180E49FE10197F1F733
:1003800088E20E948E018CE00E948E0108958130E7
:1003900039F0813050F0823029F0833051F404C0BC
:1003A000605C03C06C5E01C06C5A862F80680E943E
:1003B0008E010895CF93DF93EC0103C021960E9434
:1003C0007E0188818823D1F7DF91CF91089581E064
:1003D0000E948E0180E49FE10197F1F70895AEE05D
:1003E000B0E0E5EFF1E00C94AB040D891E898F8934
:1003F000988D97FF02C080E090E801979E838D83DF
:100400001A83098386E08C839E01255E3F4FCE01CF
:100410000196698D7A8DA9010E9420024D815E812D
:1004200057FD0AC02F813885421753070CF49A01F3
:10043000020F131FF80110822E96E4E00C94C704FB
:10044000ABE0B0E0E6E2F2E00C949D043C012B014D
:100450005A01FC0117821682838181FD03C06FEF70
:100460007FEFC6C19AE0892E1E010894211C311C21
:10047000F3012381F20123FD859123FF81912F0157
:10048000882309F4B2C1853239F423FD859123FF15
:1004900081912F01853229F490E0B3010E94130469
:1004A000E7CF982FFF24EE249924FFE1FF15D0F029
:1004B0009B3269F09C3228F4903259F0933291F4D7
:1004C0000EC09D3249F0903369F441E024C052E0FF
:1004D000F52A84E0F82A28C098E0F92A25C0E0E14E
:1004E000FE2A22C0F7FC29C0892F80538A3070F47D
:1004F000F6FE05C0989C902C1124980E15C0E89C1F
:10050000E02C1124E80EF0E2FF2A0EC09E3229F4FE
:10051000F6FC6BC140E4F42A07C09C3619F450E89D
:10052000F52A02C0983649F4F20123FD959123FF84
:1005300091912F01992309F0B8CF892F85548330E9
:1005400018F08052833038F444E050E0A40EB51E19
:100550005FE359830FC0933631F0933779F09335C9
:1005600009F056C020C0F5018081898342E050E047
:10057000A40EB51E610101E010E012C0F501C080BB
:10058000D180F6FC03C06FEF7FEF02C0692D70E0F1
:1005900042E050E0A40EB51EC6010E9408048C0182
:1005A0005FE7F52214C0F501C080D180F6FC03C0DE
:1005B0006FEF7FEF02C0692D70E042E050E0A40EC3
:1005C000B51EC6010E94FD038C0150E8F52AF3FE1A
:1005D00007C01AC080E290E0B3010E941304EA94BD
:1005E0008E2D90E008171907A8F30EC0F601F7FC4E
:1005F0008591F7FE81916F0190E0B3010E94130491
:10060000E110EA94015010400115110579F7EAC094
:10061000943611F0993669F5F7FE08C0F50120818E
:1006200031814281538184E090E00AC0F5018081EC
:1006300091819C01442737FD4095542F82E090E042
:10064000A80EB91E9FE6F92257FF09C050954095A4
:10065000309521953F4F4F4F5F4FE0E8FE2ACA018A
:10066000B901A1012AE030E00E943F04D82ED2183F
:1006700040C0953729F41F2D1F7E2AE030E01DC0B1
:100680001F2D197F9F3661F0903720F4983509F0BF
:10069000ACC00FC0903739F0983709F0A6C004C03D
:1006A00028E030E00AC0106114FD146020E130E061
:1006B00004C014FD166020E132E017FF08C0F50108
:1006C000608171818281938144E050E008C0F5012E
:1006D00080819181BC0180E090E042E050E0A40E76
:1006E000B51EA1010E943F04D82ED2188FE7F82E24
:1006F000F122F6FE0BC05EEFF522D91438F4F4FEB9
:1007000007C0F2FC05C08FEEF82202C01D2D01C00B
:10071000192DF4FE0DC0FE01ED0DF11D8081803319
:1007200019F499EEF92208C01F5FF2FE05C003C05C
:100730008F2D867809F01F5F0F2DF3FC14C0F0FE9B
:100740000FC01E1510F09D2C0BC09D2C9E0C911AF5
:100750001E2D06C080E290E0B3010E9413041F5FCB
:100760001E15C0F304C01E1510F4E11A01C0EE24DA
:1007700004FF0FC080E390E0B3010E94130402FF66
:100780001DC001FD03C088E790E00EC088E590E041
:100790000BC0802F867891F001FF02C08BE201C070
:1007A00080E2F7FC8DE290E0B3010E94130406C0E2
:1007B00080E390E0B3010E9413049A94D914C0F32B
:1007C000DA94F101ED0DF11D808190E0B3010E94FA
:1007D0001304DD20A9F706C080E290E0B3010E9477
:1007E0001304EA94EE20C1F743CEF30166817781CA
:1007F000CB012B96E2E10C94B904FC010590615009
:1008000070400110D8F7809590958E0F9F1F089526
:10081000FC016150704001900110D8F780959095CF
:100820008E0F9F1F08950F931F93CF93DF938C011B
:10083000EB018B8181FF1BC082FF0DC02E813F81A8
:100840008C819D812817390764F4E881F98101932F
:10085000F983E88306C0E885F985802F0995892BFF
:1008600031F48E819F8101969F838E8302C00FEFAA
:100870001FEFC801DF91CF911F910F910895FA01E9
:10088000AA27283051F1203181F1E8946F936E7FCF
:100890006E5F7F4F8F4F9F4FAF4FB1E03ED0B4E0C0
:1008A0003CD0670F781F891F9A1FA11D680F791F01
:1008B0008A1F911DA11D6A0F711D811D911DA11D12
:1008C00020D009F468943F912AE0269F1124301922
:1008D000305D3193DEF6CF010895462F4770405DBD
:1008E0004193B3E00FD0C9F7F6CF462F4F70405D6C
:1008F0004A3318F0495D31FD4052419302D0A9F7C7
:10090000EACFB4E0A6959795879577956795BA95C0
:10091000C9F700976105710508959B01AC010A2E86
:1009200006945795479537952795BA95C9F7620F5D
:10093000731F841F951FA01D08952F923F924F9201
:100940005F926F927F928F929F92AF92BF92CF925F
:10095000DF92EF92FF920F931F93CF93DF93CDB768
:10096000DEB7CA1BDB0B0FB6F894DEBF0FBECDBFE0
:1009700009942A88398848885F846E847D848C84B1
:100980009B84AA84B984C884DF80EE80FD800C81BA
:100990001B81AA81B981CE0FD11D0FB6F894DEBF9D
:0C09A0000FBECDBFED010895F894FFCF0D
:1009AC00202564004C61622033004A616E6E612028
:1009BC004A756D616F2D617300436F756E743A20CB
:0609CC002564000100009B
:00000001FF
