:100000000C9434000C9449000C9449000C94490061
:100010000C9449000C9449000C9449000C9449003C
:100020000C9449000C9449000C9449000C9449002C
:100030000C9449000C9449000C9449000C9449001C
:100040000C9449000C9449000C9449000C9449000C
:100050000C9449000C9449000C9449000C944900FC
:100060000C9449000C94490011241FBECFEFD8E036
:10007000DEBFCDBF11E0A0E0B1E0E6E2F8E002C0F3
:1000800005900D92AC32B107D9F70E944B000C9449
:1000900011040C940000EF92FF920F931F93DF93D3
:1000A000CF93CDB7DEB760970FB6F894DEBF0FBE23
:1000B000CDBF0E94E30080E060E00E940C0180E080
:1000C00091E00E941F018DB79EB70C970FB6F89470
:1000D0009EBF0FBE8DBFEDB7FEB731967E0108946F
:1000E000E11CF11CADB7BEB71296FC92EE921197CF
:1000F00000E110E0138302838FE091E09583848315
:1001000081E090E0978386838BE190E09187808700
:1001100083ED97E0938782870E942C01F70101907D
:100120000020E9F73197EE19FF098DB79EB70C96BD
:100130000FB6F8949EBF0FBE8DBF0E1B1F0B1695FA
:10014000079581E0602F0E940C01C7010E941F01EA
:1001500080E29EE420E931E0F9013197F1F701975F
:10016000D9F781E00E94D300FFCF9BB19F709BB96C
:100170009BB18295807F982B9BB9299A85E08A95BF
:10018000F1F7299808951F93182F289A82958F7058
:100190000E94B500812F0E94B50080E49FE1019785
:1001A000F1F71F9108951F93182F289882958F704B
:1001B0000E94B500812F0E94B50080E49FE1019765
:1001C000F1F71F91089584B1836084B98AB1806F7B
:1001D0008AB980E69AEE0197F1F780E30E94B500B4
:1001E00080E29EE40197F1F780E30E94B50080EE83
:1001F00091E00197F1F780E30E94B50080E20E9450
:10020000B50080E49FE10197F1F788E20E94D300F6
:100210008CE00E94D3000895813039F0813050F095
:10022000823029F0833051F404C0605C03C06C5EFE
:1002300001C06C5A862F80680E94D3000895CF9326
:10024000DF93EC0103C021960E94C30088818823BC
:10025000D1F7DF91CF910895AEE0B0E0E2E3F1E0B5
:100260000C94E8030D891E898F89988D97FF02C031
:1002700080E090E801979E838D831A83098386E04E
:100280008C839E01255E3F4FCE010196698D7A8D4C
:10029000A9010E945D014D815E8157FD0AC02F8139
:1002A0003885421753070CF49A01020F131FF80107
:1002B00010822E96E4E00C940404ABE0B0E0E3E698
:1002C000F1E00C94DA033C012B015A01FC01178286
:1002D0001682838181FD03C06FEF7FEFC6C19AE074
:1002E000892E1E010894211C311CF3012381F20187
:1002F00023FD859123FF81912F01882309F4B2C149
:10030000853239F423FD859123FF81912F018532B8
:1003100029F490E0B3010E945003E7CF982FFF2407
:10032000EE249924FFE1FF15D0F09B3269F09C3256
:1003300028F4903259F0933291F40EC09D3249F076
:10034000903369F441E024C052E0F52A84E0F82AB1
:1003500028C098E0F92A25C0E0E1FE2A22C0F7FC77
:1003600029C0892F80538A3070F4F6FE05C0989C0E
:10037000902C1124980E15C0E89CE02C1124E80E56
:10038000F0E2FF2A0EC09E3229F4F6FC6BC140E475
:10039000F42A07C09C3619F450E8F52A02C09836B2
:1003A00049F4F20123FD959123FF91912F019923A7
:1003B00009F0B8CF892F8554833018F080528330EC
:1003C00038F444E050E0A40EB51E5FE359830FC03B
:1003D000933631F0933779F0933509F056C020C049
:1003E000F5018081898342E050E0A40EB51E6101D1
:1003F00001E010E012C0F501C080D180F6FC03C01E
:100400006FEF7FEF02C0692D70E042E050E0A40E74
:10041000B51EC6010E9445038C015FE7F52214C09A
:10042000F501C080D180F6FC03C06FEF7FEF02C002
:10043000692D70E042E050E0A40EB51EC6010E9496
:100440003A038C0150E8F52AF3FE07C01AC080E297
:1004500090E0B3010E945003EA948E2D90E00817BB
:100460001907A8F30EC0F601F7FC8591F7FE8191FC
:100470006F0190E0B3010E945003E110EA94015033
:1004800010400115110579F7EAC0943611F099363C
:1004900069F5F7FE08C0F501208131814281538161
:1004A00084E090E00AC0F501808191819C0144279D
:1004B00037FD4095542F82E090E0A80EB91E9FE6CC
:1004C000F92257FF09C050954095309521953F4F2F
:1004D0004F4F5F4FE0E8FE2ACA01B901A1012AE0AF
:1004E00030E00E947C03D82ED21840C0953729F402
:1004F0001F2D1F7E2AE030E01DC01F2D197F9F3663
:1005000061F0903720F4983509F0ACC00FC09037F7
:1005100039F0983709F0A6C004C028E030E00AC0DE
:10052000106114FD146020E130E004C014FD166079
:1005300020E132E017FF08C0F501608171818281FE
:10054000938144E050E008C0F50180819181BC01B5
:1005500080E090E042E050E0A40EB51EA1010E94B0
:100560007C03D82ED2188FE7F82EF122F6FE0BC0AE
:100570005EEFF522D91438F4F4FE07C0F2FC05C092
:100580008FEEF82202C01D2D01C0192DF4FE0DC002
:10059000FE01ED0DF11D8081803319F499EEF922F1
:1005A00008C01F5FF2FE05C003C08F2D867809F0DA
:1005B0001F5F0F2DF3FC14C0F0FE0FC01E1510F0CE
:1005C0009D2C0BC09D2C9E0C911A1E2D06C080E206
:1005D00090E0B3010E9450031F5F1E15C0F304C0DA
:1005E0001E1510F4E11A01C0EE2404FF0FC080E3D1
:1005F00090E0B3010E94500302FF1DC001FD03C043
:1006000088E790E00EC088E590E00BC0802F8678E8
:1006100091F001FF02C08BE201C080E2F7FC8DE2A5
:1006200090E0B3010E94500306C080E390E0B30164
:100630000E9450039A94D914C0F3DA94F101ED0D9D
:10064000F11D808190E0B3010E945003DD20A9F7E5
:1006500006C080E290E0B3010E945003EA94EE20CD
:10066000C1F743CEF30166817781CB012B96E2E19E
:100670000C94F603FC010590615070400110D8F70E
:10068000809590958E0F9F1F0895FC0161507040DA
:1006900001900110D8F7809590958E0F9F1F0895B7
:1006A0000F931F93CF93DF938C01EB018B8181FF1D
:1006B0001BC082FF0DC02E813F818C819D81281738
:1006C000390764F4E881F9810193F983E88306C06E
:1006D000E885F985802F0995892B31F48E819F81DA
:1006E00001969F838E8302C00FEF1FEFC801DF9139
:1006F000CF911F910F910895FA01AA27283051F147
:10070000203181F1E8946F936E7F6E5F7F4F8F4F42
:100710009F4FAF4FB1E03ED0B4E03CD0670F781FA1
:10072000891F9A1FA11D680F791F8A1F911DA11D86
:100730006A0F711D811D911DA11D20D009F46894BF
:100740003F912AE0269F11243019305D3193DEF667
:10075000CF010895462F4770405D4193B3E00FD01D
:10076000C9F7F6CF462F4F70405D4A3318F0495D08
:1007700031FD4052419302D0A9F7EACFB4E0A695EB
:100780009795879577956795BA95C9F7009761050D
:10079000710508959B01AC010A2E06945795479563
:1007A00037952795BA95C9F7620F731F841F951F58
:1007B000A01D08952F923F924F925F926F927F9269
:1007C0008F929F92AF92BF92CF92DF92EF92FF9261
:1007D0000F931F93CF93DF93CDB7DEB7CA1BDB0B0D
:1007E0000FB6F894DEBF0FBECDBF09942A883988B2
:1007F00048885F846E847D848C849B84AA84B984B9
:10080000C884DF80EE80FD800C811B81AA81B981C4
:10081000CE0FD11D0FB6F894DEBF0FBECDBFED01D8
:060820000895F894FFCFDB
:100826004A616E6E61204A756D616F2D6173002598
:100836003032642F253032642F25640006012601EC
:0C0846004A015D018801B801EE010B02BF
:00000001FF
