:100000000C9434000C9451000C9451000C94510049
:100010000C94AF000C9451000C9451000C945100BE
:100020000C9451000C9451000C9451000C948000DD
:100030000C9451000C9451000C9451000C945100FC
:100040000C9451000C9451000C9451000C945100EC
:100050000C9451000C9451000C9451000C945100DC
:100060000C9451000C94510011241FBECFEFD8E026
:10007000DEBFCDBF11E0A0E0B1E0E2ECFAE002C0EB
:1000800005900D92AA32B107D9F711E0AAE2B1E0CA
:1000900001C01D92A333B107E1F70E9442010C9405
:1000A0005F050C9400001092800088E0809381002E
:1000B00082E080936F0008950F931F930097E9F0FB
:1000C0008C01000F111F980140E050E060E074E2E5
:1000D00084EF90E00E943D023093890020938800D5
:1000E00010933201009331018091810081608093EF
:1000F00081001092300110922F011F910F910895ED
:100100001F920F920FB60F9211242F933F938F934C
:100110009F9385B190E1892785B980912F019091B6
:10012000300101969093300180932F0120912F018F
:1001300030913001809131019091320128173907B7
:1001400028F0809181008E7F809381009F918F9114
:100150003F912F910F900FBE0F901F9018951F92F7
:100160000F920FB60F9211242F938F939F9326B166
:1001700086B1227090E0689414F89695879516944D
:10018000E1F78170282B20932D0190912D01809112
:100190002C01981791F180912C01882321F48091F2
:1001A0002D018130C1F080912C01813021F48091AA
:1001B0002D01833081F080912C01833021F48091D6
:1001C0002D01823041F080912C01823051F48091D8
:1001D0002D01882331F480912A0190912B01019601
:1001E00005C080912A0190912B01019790932B01DA
:1001F00080932A0181E080932E0180912D018093CC
:100200002C019F918F912F910F900FBE0F901F90F7
:100210001895249A87B18D7D87B988B1826288B993
:100220008091680082608093680080916C00826297
:1002300080936C000E94EC010E94350280E060E037
:100240000E94150280E091E00E94280281E060E0B7
:100250000E94150286E091E00E94280280E197E268
:1002600020E931E0F9013197F1F70197D9F70E94C0
:1002700035021092800088E08093810082E08093B4
:100280006F000895CF92DF92EF92FF920F931F932A
:10029000DF93CF93CDB7DEB760970FB6F894DEBF8C
:1002A0000FBECDBF0E94090178948E010F5F1F4FD2
:1002B00020E1C22ED12C95E1E92E91E0F92E80911A
:1002C0002E018823E1F310922E0180912A01909152
:1002D0002B012DB73EB7285030400FB6F8943EBFE3
:1002E0000FBE2DBFEDB7FEB73196ADB7BEB71296B4
:1002F0001C930E931197D382C282F582E482978376
:1003000086830E947A022DB73EB7285F3F4F0FB613
:10031000F8943EBF0FBE2DBF0E94350280E060E022
:100320000E941502C8010E94280240912A015091A2
:100330002B0120912A0130912B0137FF03C030950A
:1003400021953F4F27703070232B09F0B8CF809153
:10035000810080FDB4CFFA0157FF03C0F095E1950D
:10036000FF4FF695E795F695E795EE70F070E75E2E
:10037000FE4F808191810E945C00A1CF9BB19F7054
:100380009BB99BB18295807F982B9BB9299A85E078
:100390008A95F1F7299808951F93182F289A829526
:1003A0008F700E94BE01812F0E94BE0180E49FE1F8
:1003B0000197F1F71F9108951F93182F28988295A0
:1003C0008F700E94BE01812F0E94BE0180E49FE1D8
:1003D0000197F1F71F91089584B1836084B98AB1C0
:1003E000806F8AB980E69AEE0197F1F780E30E9468
:1003F000BE0180E29EE40197F1F780E30E94BE0116
:1004000080EE91E00197F1F780E30E94BE0180E267
:100410000E94BE0180E49FE10197F1F788E20E940B
:10042000DC018CE00E94DC010895813039F08130DC
:1004300050F0823029F0833051F404C0605C03C076
:100440006C5E01C06C5A862F80680E94DC010895A2
:10045000CF93DF93EC0103C021960E94CC018881E9
:100460008823D1F7DF91CF91089581E00E94DC01CC
:1004700080E49FE10197F1F7089597FB092E052687
:100480000ED057FD04D014D00AD0001C38F450957B
:100490004095309521953F4F4F4F5F4F0895F6F7A8
:1004A00090958095709561957F4F8F4F9F4F0895E0
:1004B000A1E21A2EAA1BBB1BFD010DC0AA1FBB1F68
:1004C000EE1FFF1FA217B307E407F50720F0A21BDA
:1004D000B30BE40BF50B661F771F881F991F1A9447
:1004E00069F760957095809590959B01AC01BD0171
:1004F000CF010895AEE0B0E0E0E8F2E00C943605FC
:100500000D891E898F89988D97FF02C080E090E841
:1005100001979E838D831A83098386E08C839E01D5
:10052000255E3F4FCE010196698D7A8DA9010E940B
:10053000AB024D815E8157FD0AC02F81388542177D
:1005400053070CF49A01020F131FF80110822E9624
:10055000E4E00C945205ABE0B0E0E1EBF2E00C9487
:1005600028053C012B015A01FC0117821682838168
:1005700081FD03C06FEF7FEFC6C19AE0892E1E0197
:100580000894211C311CF3012381F20123FD859184
:1005900023FF81912F01882309F4B2C1853239F4F8
:1005A00023FD859123FF81912F01853229F490E06D
:1005B000B3010E949E04E7CF982FFF24EE249924D4
:1005C000FFE1FF15D0F09B3269F09C3228F49032A5
:1005D00059F0933291F40EC09D3249F0903369F492
:1005E00041E024C052E0F52A84E0F82A28C098E0CF
:1005F000F92A25C0E0E1FE2A22C0F7FC29C0892F94
:1006000080538A3070F4F6FE05C0989C902C11241B
:10061000980E15C0E89CE02C1124E80EF0E2FF2AA9
:100620000EC09E3229F4F6FC6BC140E4F42A07C0E8
:100630009C3619F450E8F52A02C0983649F4F201C4
:1006400023FD959123FF91912F01992309F0B8CFB4
:10065000892F8554833018F08052833038F444E079
:1006600050E0A40EB51E5FE359830FC0933631F0FE
:10067000933779F0933509F056C020C0F501808199
:10068000898342E050E0A40EB51E610101E010E054
:1006900012C0F501C080D180F6FC03C06FEF7FEF80
:1006A00002C0692D70E042E050E0A40EB51EC60104
:1006B0000E9493048C015FE7F52214C0F501C0800D
:1006C000D180F6FC03C06FEF7FEF02C0692D70E0B0
:1006D00042E050E0A40EB51EC6010E9488048C01C1
:1006E00050E8F52AF3FE07C01AC080E290E0B3019B
:1006F0000E949E04EA948E2D90E008171907A8F333
:100700000EC0F601F7FC8591F7FE81916F0190E034
:10071000B3010E949E04E110EA94015010400115BB
:10072000110579F7EAC0943611F0993669F5F7FEAC
:1007300008C0F501208131814281538184E090E03D
:100740000AC0F501808191819C01442737FD4095C5
:10075000542F82E090E0A80EB91E9FE6F92257FFC1
:1007600009C050954095309521953F4F4F4F5F4FB1
:10077000E0E8FE2ACA01B901A1012AE030E00E94A6
:10078000CA04D82ED21840C0953729F41F2D1F7ED9
:100790002AE030E01DC01F2D197F9F3661F0903791
:1007A00020F4983509F0ACC00FC0903739F0983775
:1007B00009F0A6C004C028E030E00AC0106114FDB2
:1007C000146020E130E004C014FD166020E132E046
:1007D00017FF08C0F501608171818281938144E037
:1007E00050E008C0F50180819181BC0180E090E07B
:1007F00042E050E0A40EB51EA1010E94CA04D82E0A
:10080000D2188FE7F82EF122F6FE0BC05EEFF5222C
:10081000D91438F4F4FE07C0F2FC05C08FEEF822BC
:1008200002C01D2D01C0192DF4FE0DC0FE01ED0DFD
:10083000F11D8081803319F499EEF92208C01F5F01
:10084000F2FE05C003C08F2D867809F01F5F0F2DC3
:10085000F3FC14C0F0FE0FC01E1510F09D2C0BC051
:100860009D2C9E0C911A1E2D06C080E290E0B301D3
:100870000E949E041F5F1E15C0F304C01E1510F4D5
:10088000E11A01C0EE2404FF0FC080E390E0B30141
:100890000E949E0402FF1DC001FD03C088E790E096
:1008A0000EC088E590E00BC0802F867891F001FFA4
:1008B00002C08BE201C080E2F7FC8DE290E0B30160
:1008C0000E949E0406C080E390E0B3010E949E0453
:1008D0009A94D914C0F3DA94F101ED0DF11D8081E1
:1008E00090E0B3010E949E04DD20A9F706C080E2DB
:1008F00090E0B3010E949E04EA94EE20C1F743CE3B
:10090000F30166817781CB012B96E2E10C944405DB
:10091000FC010590615070400110D8F780959095CA
:100920008E0F9F1F0895FC016150704001900110CF
:10093000D8F7809590958E0F9F1F08950F931F9362
:10094000CF93DF938C01EB018B8181FF1BC082FF72
:100950000DC02E813F818C819D812817390764F459
:10096000E881F9810193F983E88306C0E885F98578
:10097000802F0995892B31F48E819F8101969F8369
:100980008E8302C00FEF1FEFC801DF91CF911F913F
:100990000F910895FA01AA27283051F1203181F1F1
:1009A000E8946F936E7F6E5F7F4F8F4F9F4FAF4F77
:1009B000B1E03ED0B4E03CD0670F781F891F9A1F8A
:1009C000A11D680F791F8A1F911DA11D6A0F711D3E
:1009D000811D911DA11D20D009F468943F912AE04A
:1009E000269F11243019305D3193DEF6CF01089532
:1009F000462F4770405D4193B3E00FD0C9F7F6CF63
:100A0000462F4F70405D4A3318F0495D31FD40522A
:100A1000419302D0A9F7EACFB4E0A69597958795C0
:100A200077956795BA95C9F700976105710508959F
:100A30009B01AC010A2E069457954795379527954B
:100A4000BA95C9F7620F731F841F951FA01D0895E3
:100A50002F923F924F925F926F927F928F929F92CE
:100A6000AF92BF92CF92DF92EF92FF920F931F93BC
:100A7000CF93DF93CDB7DEB7CA1BDB0B0FB6F8946D
:100A8000DEBF0FBECDBF09942A88398848885F84AD
:100A90006E847D848C849B84AA84B984C884DF801E
:100AA000EE80FD800C811B81AA81B981CE0FD11D02
:100AB0000FB6F894DEBF0FBECDBFED010895F894D8
:020AC000FFCF66
:100AC2004C61622033004A616E6E61204A756D612D
:100AD2006F2D61730020256400060126014A015D25
:0A0AE200018801B801EE010B0200CB
:00000001FF
