:100000000C9434000C943E000C943E000C943E0082
:100010000C943E000C943E000C943E000C943E0068
:100020000C943E000C943E000C943E000C943E0058
:100030000C943E000C943E000C943E000C943E0048
:100040000C943E000C943E000C943E000C943E0038
:100050000C943E000C943E000C943E000C943E0028
:100060000C943E000C943E0011241FBECFEFD8E04C
:10007000DEBFCDBF0E946A000C94B2000C94000059
:100080005A9A88EB9BE020E931E0F9013197F1F7CA
:100090000197D9F75A9888EB9BE020E931E0F90104
:1000A0003197F1F70197D9F708955A9A88E293E2C8
:1000B00020E931E0F9013197F1F70197D9F75A9822
:1000C00088EB9BE020E931E0F9013197F1F70197E6
:1000D000D9F70895CF93DF93529A239824982598BF
:1000E0002B9A2C9A2D9AC0E9D1E01B990BC00E9443
:1000F00055000E94550088E293E2FE013197F1F726
:100100000197D9F71C990DC00E9440000E94400041
:100110000E94400088E293E2FE013197F1F70197D7
:10012000D9F71D99E2CF0E9440000E9440000E9432
:10013000550088E293E2FE013197F1F70197D9F774
:10014000D4CF882311F05A9A08955A98089523B16C
:1001500030E002C0359527958A95E2F72095822FE9
:0801600081700895F894FFCFAF
:00000001FF
