:100000000C9434000C943E000C943E000C943E0082
:100010000C943E000C943E000C943E000C943E0068
:100020000C943E000C943E000C943E000C943E0058
:100030000C943E000C943E000C943E000C943E0048
:100040000C943E000C943E000C943E000C943E0038
:100050000C943E000C943E000C943E000C943E0028
:100060000C943E000C943E0011241FBECFEFD8E04C
:10007000DEBFCDBF0E9468000C949F000C9400006E
:10008000229AE0E8F0E01082A1E8B0E01C9280E45F
:100090009CE99093870080938600808182628083B0
:1000A0008C918A618C9380EF9AE090938B0080937F
:1000B0008A00089590938B0080938A0080E197E2F4
:1000C00020E931E0F9013197F1F70197D9F7089567
:1000D0000E944000A0ECB2E120E931E040EF5AE09C
:1000E00064E873E0B0938B00A0938A0080E197E20C
:1000F000F9013197F1F70197D9F750938B004093AD
:100100008A0080E197E2F9013197F1F70197D9F779
:1001100070938B0060938A0080E197E2F901319738
:10012000F1F70197D9F750938B0040938A0080E153
:1001300097E2F9013197F1F70197D9F7D3CFF89406
:02014000FFCFEF
:00000001FF
