:100000000C9434000C9446000C9446000C9446006A
:100010000C9446000C9446000C9446000C94460048
:100020000C9446000C9446000C9414010C94460069
:100030000C9446000C9446000C9446000C94460028
:100040000C9446000C9446000C9446000C94460018
:100050000C9446000C9446000C9446000C94460008
:100060000C9446000C94460011241FBECFEFD8E03C
:10007000DEBFCDBF11E0A0E0B1E001C01D92A53010
:10008000B107E1F70E9448000C94DE010C940000D7
:10009000CF93DF930E9400010E9405010E9450014E
:1000A0000E94DE000E946A0180E197E220E931E0CF
:1000B000F9013197F1F70197D9F782E70E94D6004D
:1000C0008CE60E94D600C0E9D1E080EF9AE00E9461
:1000D000BC0184EC99E0FE013197F1F70197D9F763
:1000E00080EF9AE040E050E060EC71E40E949901FA
:1000F00088E99AE3FE013197F1F70197D9F784E88F
:1001000093E00E94BC0184EC99E0FE013197F1F785
:100110000197D9F784E893E040E050E060EC71E4A7
:100120000E94990188E99AE3FE013197F1F701975E
:10013000D9F780EF9AE00E94BC0184EC99E0FE01BF
:100140003197F1F70197D9F780EF9AE040E050E05E
:1001500060EC71E40E94990188E99AE3FE0131970D
:10016000F1F70197D9F780EC92E10E94BC0184EC91
:1001700099E0FE013197F1F70197D9F780EC92E110
:1001800040E050E060EC71E40E94990188E99AE354
:10019000FE013197F1F70197D9F797CF823711F424
:1001A000289A08958C3609F42B9A0895823711F411
:1001B000289808958C3609F42B98089584B18960A5
:1001C00084B982E70E94CE0080ED97E020E931E01B
:1001D000F9013197F1F70197D9F782E70E94D6002C
:1001E0008CE60E94CE0080ED97E020E931E0F90135
:1001F0003197F1F70197D9F78CE60E94D600089560
:1002000083E884BD83E085BD0895E1E8F0E0808166
:1002100080648083808182608083EFE6F0E080816B
:1002200080628083789408951F920F920FB60F9288
:1002300011242F933F938F939F93809104018823E0
:1002400089F48091860090918700909301018093BA
:100250000001809181008F7B8093810081E08093F9
:10026000040115C0809186009091870020910001C3
:1002700030910101821B930B909303018093020143
:1002800080918100806480938100109204019F918D
:100290008F913F912F910F900FBE0F901F90189547
:1002A000229AE0E8F0E01082A1E8B0E01C9280E43D
:1002B0009CE990938700809386008081826280838E
:1002C0008C918A618C9380EF9AE090938B0080935D
:1002D0008A000895249A2C98259808952C9A85E3ED
:1002E0008A95F1F72C9880E090E005C001962AEEFF
:1002F00081369207D1F01D9BF9CF109285001092A4
:10030000840080E090E005C001962AEE81369207D5
:1003100061F01D99F9CF809184009091850064E986
:1003200070E00E94CA019B0102C02FEF3FEFC9019C
:100330000895CF93DF93EC0182E70E94D6008CE60C
:100340000E94D6000E946E01499798F482E1C03C59
:10035000D80761F083E0C438D80711F482E707C0FA
:10036000C05FDA4031F482E70E94CE008CE60E9442
:10037000CE00DF91CF91089590938B0080938A00F7
:1003800080E197E220E931E0F9013197F1F7019737
:10039000D9F70895AA1BBB1B51E107C0AA1FBB1FB9
:1003A000A617B70710F0A61BB70B881F991F5A9501
:1003B000A9F780959095BC01CD010895F894FFCFE1
:00000001FF
