:100000000C9434000C9449000C9449000C94490061
:100010000C9449000C9449000C9449000C9449003C
:100020000C9449000C9449000C9449000C9449002C
:100030000C9449000C9449000C9449000C9449001C
:100040000C9449000C9449000C9449000C9449000C
:100050000C9449000C9449000C9449000C944900FC
:100060000C9449000C94490011241FBECFEFD8E036
:10007000DEBFCDBF11E0A0E0B1E0EAE9F1E002C0EF
:1000800005900D92A231B107D9F70E944B000C9454
:10009000CB000C9400000E94A20080E060E00E946F
:1000A000980080E091E00E947C0081E060E00E9486
:1000B000980089E091E00E947C00EFCF9BB19F7097
:1000C0009BB99BB18295807F982B9BB9299A85E03B
:1000D0008A95F1F7299808951F93182F289A8295E9
:1000E0008F700E945E00812F0E945E0080E49FE17D
:1000F0000197F1F71F910895CF93DF93EC0102C0B0
:100100000E946C0089918823D9F7DF91CF910895DF
:100110001F93182F289882958F700E945E00812F60
:100120000E945E0080E49FE10197F1F71F9108951E
:10013000882319F4862F805802C0862F80540E948D
:100140008800089584B1836084B98AB1806F8AB9C8
:1001500080E69AEE0197F1F780E30E945E0080E26C
:100160009EE40197F1F780E30E945E0088EB91E046
:100170000197F1F780E30E945E0080E20E945E003A
:1001800080E49FE10197F1F788E20E9488008CE00B
:0A0190000E9488000895F894FFCF44
:10019A004C434420546573740050726F6772616DEA
:0201AA00000053
:00000001FF
