:100000000C9434000C9451000C9451000C94510049
:100010000C9480000C9451000C9451000C945100ED
:100020000C9451000C9451000C9451000C9451000C
:100030000C9451000C9451000C9451000C945100FC
:100040000C9451000C9451000C9451000C945100EC
:100050000C9451000C9451000C9451000C945100DC
:100060000C9451000C94510011241FBECFEFD8E026
:10007000DEBFCDBF11E0A0E0B1E0E0E5F3E002C0FB
:1000800005900D92A430B107D9F711E0A4E0B1E0DA
:1000900001C01D92A730B107E1F70E9418010C942E
:1000A000A6010C940000E0E8F0E08081836080838A
:1000B000A1E8B0E08C9188618C938081806280831C
:1000C000809101019091020190938B0080938A00AE
:1000D0008C9182608C93229A0895E0EBF0E080810D
:1000E0008360808380818068808380910601809313
:1000F000B300E1EBF0E0808187608083239A08956C
:100100001F920F920FB60F9211242F933F938F934C
:100110009F9326B186B130E093E0369527959A9566
:10012000E1F72270307090E035E0969587953A952A
:10013000E1F78170822B80930501909105018091F8
:100140000401981709F451C080910401882321F417
:10015000809105018130C1F080910401813021F44A
:1001600080910501833081F080910401833021F476
:1001700080910501823041F080910401823041F488
:1001800080910501882321F4809106018F5F03C0CF
:100190008091060181508093060180910601209193
:1001A00001013091020180910501813039F0809187
:1001B0000501823019F086EF9FEF02C08AE090E0DF
:1001C000820F931F90930201809301018091060199
:1001D0008093B300809101019091020190938B0074
:1001E00080938A0081E080930601809105018093CD
:1001F00004019F918F913F912F910F900FBE0F900F
:100200001F901895249A87B18F7C87B988B1806335
:1002100088B9E8E6F0E0808182608083ECE6F0E077
:100220008081806380830E946D000E945300089546
:100230000E940201789488EE93E020E931E0F90110
:100240003197F1F70197D9F788EE93E0F8CF9BB19A
:100250009F709BB99BB18295807F982B9BB9299AFF
:1002600085E08A95F1F7299808951F93182F289A09
:1002700082958F700E942701812F0E94270180E4C0
:100280009FE10197F1F71F9108951F93182F289868
:1002900082958F700E942701812F0E94270180E4A0
:1002A0009FE10197F1F71F91089584B1836084B9AC
:1002B0008AB1806F8AB980E69AEE0197F1F780E300
:1002C0000E94270180E29EE40197F1F780E30E94FB
:1002D000270180EE91E00197F1F780E30E9427016A
:1002E00080E20E94270180E49FE10197F1F788E214
:1002F0000E9445018CE00E9445010895813039F04B
:10030000813050F0823029F0833051F404C0605CB9
:1003100003C06C5E01C06C5A862F80680E94450144
:100320000895CF93DF93EC0103C021960E9435011D
:1003300088818823D1F7DF91CF91089581E00E94D1
:10034000450180E49FE10197F1F70895F894FFCF0C
:0403500080DC050048
:00000001FF
