:100000000C9434000C9451000C9451000C94510049
:100010000C9451000C9451000C9451000C9451001C
:100020000C9451000C9451000C9451000C9451000C
:100030000C9451000C9451000C9451000C945100FC
:100040000C9451000C9451000C9451000C945100EC
:100050000C9451000C9451000C9451000C945100DC
:100060000C9451000C94510011241FBECFEFD8E026
:10007000DEBFCDBF12E0A0E0B1E0E2EAF9E102C0EC
:1000800005900D92A233B107D9F712E0A2E3B2E0D6
:1000900001C01D92A633B107E1F70E94D8010C946C
:1000A000CF0C0C9400002F923F924F925F926F9270
:1000B0007F928F929F92AF92BF92CF92DF92EF92F8
:1000C000FF920F931F93DF93CF9300D00F92CDB782
:1000D000DEB7009709F4E4C09C0140E050E060E422
:1000E00072E48FE090E00E94AD0936952795B90142
:1000F00080E090E00E943F071B012C012BEA3AEAC6
:100100004AEA50E40E94B5043B014C010E94DF0220
:1001100069831B821A822C9AC401B30120E030E06B
:1001200040E85FE30E94BB0687FD50C0C401B301F5
:1001300020E030E04FE753E40E945B06181614F00D
:10014000898145C0C201B10120E030E04AE754E4B2
:100150000E94AF055B016C0120E030E04AE755E406
:100160000E94B5047B018C0120E030E040E85FE3B1
:100170000E94BB0688231CF461E070E023C0C80124
:10018000B70120E03FEF4FE757E40E945B061816E7
:10019000ACF4C601B50120E030E040E251E40E9439
:1001A000B5040E94DF0206C080E991E00197F1F7F3
:1001B0006150704061157105B9F70BC0C801B701F6
:1001C0000E94DF02CB010197F1F703C081E08A951D
:1001D000F1F72C98C401B30120E030E040E85FE380
:1001E0000E94BB0687FD50C0C401B30120E030E08F
:1001F0004FE753E40E945B06181614F0898145C04E
:10020000C201B10120E030E04AE754E40E94AF05AA
:100210005B016C0120E030E04AE755E40E94B50440
:100220007B018C0120E030E040E85FE30E94BB06E8
:1002300088231CF461E070E023C0C801B70120E00E
:100240003FEF4FE757E40E945B061816ACF4C60177
:10025000B50120E030E040E251E40E94B5040E9484
:10026000DF0206C080E991E00197F1F7615070402C
:1002700061157105B9F70BC0C801B7010E94DF0213
:10028000CB010197F1F703C081E08A95F1F78A81EC
:100290009B8101969B838A83883C910509F03BCF23
:1002A0000F900F900F90CF91DF911F910F91FF90C2
:1002B000EF90DF90CF90BF90AF909F908F907F9006
:1002C0006F905F904F903F902F90089526B186B128
:1002D000227090E035E0969587953A95E1F7817028
:1002E000282B809134022817D9F1882319F4213062
:1002F000B9F40EC0813019F42330F9F409C0833009
:1003000019F42230A9F404C0823041F4222359F4B4
:100310008091320290913302019616C0882331F405
:100320002230B1F40CC0233099F409C0833019F4A1
:10033000213071F404C0813059F4222349F48091B2
:1003400032029091330201979093330280933202EC
:10035000209334021092350280E49FE10197F1F777
:100360000895249A87B18D7D87B988B1826288B952
:100370000E948E020E94D70280E060E00E94B702D5
:1003800080E091E00E94CA0281E060E00E94B70232
:1003900086E091E00E94CA0280E197E220E931E024
:1003A000F9013197F1F70197D9F70E94D702089523
:1003B0009F92AF92BF92CF92DF92EF92FF920F93F4
:1003C0001F93DF93CF93CDB7DEB760970FB6F89446
:1003D000DEBF0FBECDBF0E94B1018E010F5F1F4F68
:1003E00070E1A72EB12C65E1C62E61E0D62E9924CE
:1003F000939450E9E52E51E0F52E0E94660180911C
:100400003202909133022DB73EB7285030400FB6DC
:10041000F8943EBF0FBE2DBFEDB7FEB73196ADB716
:10042000BEB712961C930E931197B382A282D58207
:10043000C482978386830E94210A2DB73EB7285F26
:100440003F4F0FB6F8943EBF0FBE2DBF0E94D7029C
:1004500080E060E00E94B702C8010E94CA02809159
:1004600032029091330297FF03C0909581959F4F80
:1004700087709070892BD9F4809135028823B9F464
:1004800090923502E0913202F0913302F7FF03C0FF
:10049000F095E195FF4FF695E795F695E795EE70A7
:1004A000F070E75EFE4F808191810E94530084EFDF
:1004B00091E0F7013197F1F7019709F49ECFF9CF59
:1004C0009BB19F709BB99BB18295807F982B9BB904
:1004D000299A85E08A95F1F7299808951F93182F96
:1004E000289A82958F700E946002812F0E9460027C
:1004F00080E49FE10197F1F71F9108951F93182F52
:10050000289882958F700E946002812F0E9460025D
:1005100080E49FE10197F1F71F91089584B1836012
:1005200084B98AB1806F8AB980E69AEE0197F1F7B3
:1005300080E30E94600280E29EE40197F1F780E38D
:100540000E94600280EE91E00197F1F780E30E9443
:10055000600280E20E94600280E49FE10197F1F76F
:1005600088E20E947E028CE00E947E020895813023
:1005700039F0813050F0823029F0833051F404C0DA
:10058000605C03C06C5E01C06C5A862F80680E945C
:100590007E020895CF93DF93EC0103C021960E9461
:1005A0006E0288818823D1F7DF91CF91089581E091
:1005B0000E947E0280E49FE10197F1F70895EF9297
:1005C000FF920F931F937B018C0120E030E040E00D
:1005D0005FE40E948B0688238CF0C801B70120E0FD
:1005E00030E040E05FE40E9457040E94EB069B016C
:1005F000AC01205030404040504806C0C801B7010F
:100600000E94EB069B01AC01B901CA011F910F9139
:10061000FF90EF900895A0E0B0E0E1E1F3E00C94EA
:10062000EA09DC012B01FA019C91923008F439C1EE
:10063000EB018881823008F433C1943069F484304E
:1006400009F02FC111969C9111978981981709F48F
:1006500028C1A9E2B1E025C1843009F421C182306A
:10066000A9F4923009F01DC19A01AD0188E0EA01B8
:100670000990AE01E90109929E018150C1F7E201A2
:10068000898111969C918923818308C1923009F454
:1006900007C112962D903C901397EB018A819B81A4
:1006A0001496AD90BD90CD90DC901797EC80FD80B6
:1006B0000E811F819101281B390BB90137FF04C03E
:1006C00066277727621B730B603271050CF061C0DF
:1006D000121613066CF537014801062E04C09694D5
:1006E0008794779467940A94D2F721E030E040E051
:1006F00050E004C0220F331F441F551F6A95D2F7E4
:1007000021503040404050402E213F214023512372
:10071000211531054105510521F021E030E040E08F
:1007200050E079018A01E628F728082919293CC0F8
:10073000232BD1F1260E371E35014601062E04C0AB
:1007400096948794779467940A94D2F721E030E0E6
:1007500040E050E004C0220F331F441F551F6A952C
:10076000D2F721503040404050402A213B214C21BB
:100770005D21211531054105510521F021E030E0D1
:1007800040E050E059016A01A628B728C828D928B6
:100790000BC0821593052CF01C01AA24BB24650113
:1007A00003C0EE24FF24870111969C91D20111967B
:1007B0008C91981709F445C0992339F0A801970145
:1007C0002A193B094C095D0906C0A60195012E199D
:1007D0003F09400B510B57FD08C011823382228222
:1007E00024833583468357831DC081E08183338210
:1007F000228288279927DC01821B930BA40BB50B5F
:1008000084839583A683B7830DC0220F331F441FB3
:10081000551F2483358346835783828193810197B3
:10082000938382832481358146815781DA01C9010E
:100830000197A109B1098F5F9F4FAF4FBF4328F3C5
:100840000BC0918333822282EA0CFB1C0C1D1D1D00
:10085000E482F5820683178383E0808324813581D7
:100860004681578157FF1AC0C901AA2797FDA09555
:10087000BA2F81709070A070B070569547953795DB
:100880002795822B932BA42BB52B84839583A6834A
:10089000B78382819381019693838283DF0101C0B4
:1008A000D201CD01CDB7DEB7E2E10C94060AA0E299
:1008B000B0E0EDE5F4E00C94F60969837A838B836C
:1008C0009C832D833E834F835887E9E0EE2EF12CE5
:1008D000EC0EFD1ECE010196B7010E94DC088E01D0
:1008E0000F5E1F4FCE010596B8010E94DC088A8971
:1008F00091E089278A8BC701B801AE01475E5F4F3F
:100900000E940B030E940708A096E6E00C94120ACE
:10091000A0E2B0E0EEE8F4E00C94F60969837A8393
:100920008B839C832D833E834F835887F9E0EF2E82
:10093000F12CEC0EFD1ECE010196B7010E94DC08E1
:100940008E010F5E1F4FCE010596B8010E94DC0894
:10095000C701B801AE01475E5F4F0E940B030E94C2
:100960000708A096E6E00C94120AA0E2B0E0EBEBD8
:10097000F4E00C94EA0969837A838B839C832D834A
:100980003E834F835887CE010196BE01675F7F4F3C
:100990000E94DC08CE010596BE016F5E7F4F0E946B
:1009A000DC089985923088F089898230C8F09430CB
:1009B00019F4823051F404C0843029F4923081F467
:1009C00089E291E0C6C0923049F420E09A858A8994
:1009D000981321E02A87CE010996BBC0823049F4E2
:1009E00020E09A858A89981321E02A8BCE014196CE
:1009F000B0C02D843E844F8458886D887E888F884F
:100A0000988CEE24FF248701AA24BB24650140E0D2
:100A100050E060E070E0E0E0F0E0C10181709070D3
:100A2000892BE9F0E60CF71C081D191D9A01AB0192
:100A30002A0D3B1D4C1D5D1D80E090E0A0E0B0E064
:100A4000E614F7040805190520F481E090E0A0E021
:100A5000B0E0BA01A901480F591F6A1F7B1FAA0CF9
:100A6000BB1CCC1CDD1C97FE08C081E090E0A0E020
:100A7000B0E0A82AB92ACA2ADB2A3196E032F10569
:100A800049F0660C771C881C991C5694479437943F
:100A90002794C3CFFA85EA892B893C898B859C856D
:100AA000280F391F2E5F3F4F17C0CA018170907009
:100AB000892B61F016950795F794E79480E090E014
:100AC000A0E0B0E8E82AF92A0A2B1B2B7695679557
:100AD000579547952F5F3F4F77FDE7CF0CC0440FE9
:100AE000551F661F771F17FD4160EE0CFF1C001F8E
:100AF000111F21503040403090E0590790E06907C5
:100B000090E4790760F32B8F3C8FDB01CA018F776C
:100B10009070A070B07080349105A105B10561F4AA
:100B200047FD0AC0E114F1040105110529F0405CFC
:100B30005F4F6F4F7F4F40781A8EFE1711F081E0A4
:100B40008A8F4D8F5E8F6F8F78A383E0898FCE0160
:100B500049960E940708A096E2E10C94060AA8E1D3
:100B6000B0E0E5EBF5E00C94F20969837A838B83BE
:100B70009C832D833E834F835887B9E0EB2EF12C65
:100B8000EC0EFD1ECE010196B7010E94DC088E011D
:100B90000F5E1F4FCE010596B8010E94DC08298523
:100BA000223008F47EC03989323010F4B8017CC09C
:100BB0008A859A8989278A87243011F0223031F476
:100BC000231709F06EC069E271E06EC0343039F469
:100BD0001D861E861F86188A1C861B8604C032301E
:100BE00021F484E08987B7015FC02B853C858B8920
:100BF0009C89281B390B3C872B87ED84FE840F854D
:100C00001889AD88BE88CF88D88CEA14FB040C05FF
:100C10001D0540F4EE0CFF1C001F111F2150304039
:100C20003C872B8720E030E040E050E080E090E01F
:100C3000A0E0B0E460E070E0EA14FB040C051D05E0
:100C400040F0282B392B4A2B5B2BEA18FB080C09A8
:100C50001D09B695A79597958795EE0CFF1C001F6B
:100C6000111F6F5F7F4F6F31710531F7DA01C901D5
:100C70008F779070A070B07080349105A105B10598
:100C800061F427FD0AC0E114F1040105110529F002
:100C9000205C3F4F4F4F5F4F20782D873E874F8717
:100CA000588BBE01675F7F4FCB010E940708689693
:100CB000EAE00C940E0AA8E1B0E0E1E6F6E00C945C
:100CC000F60969837A838B839C832D833E834F83CC
:100CD000588789E0E82EF12CEC0EFD1ECE0101961E
:100CE000B7010E94DC088E010F5E1F4FCE010596F2
:100CF000B8010E94DC088985823040F08989823001
:100D000028F0C701B8010E94540901C08FEF68960E
:100D1000E6E00C94120AA8E1B0E0E1E9F6E00C94F8
:100D2000F60969837A838B839C832D833E834F836B
:100D3000588789E0E82EF12CEC0EFD1ECE010196BD
:100D4000B7010E94DC088E010F5E1F4FCE01059691
:100D5000B8010E94DC088985823040F089898230A0
:100D600028F0C701B8010E94540901C08FEF6896AE
:100D7000E6E00C94120AA8E1B0E0E1ECF6E00C9495
:100D8000F60969837A838B839C832D833E834F830B
:100D9000588789E0E82EF12CEC0EFD1ECE0101965D
:100DA000B7010E94DC088E010F5E1F4FCE01059631
:100DB000B8010E94DC088985823040F08989823040
:100DC00028F0C701B8010E94540901C081E068966B
:100DD000E6E00C94120AACE0B0E0E1EFF6E00C942F
:100DE000FA0969837A838B839C83CE010196BE01C5
:100DF0006B5F7F4F0E94DC088D81823061F1823011
:100E000050F1843021F48E81882351F12EC02F813E
:100E1000388537FD20C06E812F3131051CF06623E7
:100E2000F9F023C08EE190E0821B930B29853A856F
:100E30004B855C8504C056954795379527958A95CF
:100E4000D2F76623B1F050954095309521953F4FEC
:100E50004F4F5F4F0EC020E030E040E050E009C04F
:100E60002FEF3FEF4FEF5FE704C020E030E040E0BE
:100E700050E8B901CA012C96E2E00C94160AA8E0E9
:100E8000B0E0E5E4F7E00C94F2097B018C01611518
:100E900071058105910519F482E0898360C083E0C2
:100EA00089838EE1C82ED12CDC82CB82ED82FE823A
:100EB0000F831887C801B7010E94B807FC0131975A
:100EC000F7FF3BC0222733272E1B3F0B570168013A
:100ED000022E04C0D694C794B794A7940A94D2F76C
:100EE00040E050E060E070E081E090E0A0E0B0E041
:100EF00004C0880F991FAA1FBB1F2A95D2F701971C
:100F0000A109B1098E219F21A023B1230097A1053A
:100F1000B10521F041E050E060E070E04A295B2932
:100F20006C297D294D835E836F8378878EE190E005
:100F30008E1B9F0B9C838B8312C0309781F00E2EEB
:100F400004C0EE0CFF1C001F111F0A94D2F7ED82A3
:100F5000FE820F831887CE1ADF0ADC82CB821A82C8
:100F6000CE0101960E9407082896EAE00C940E0A2A
:100F7000EF92FF920F931F937B018C0180E0E816A4
:100F800080E0F80681E0080780E0180788F48FEF1A
:100F9000E816F1040105110531F028F088E090E031
:100FA000A0E0B0E017C080E090E0A0E0B0E012C0A8
:100FB00080E0E81680E0F80680E0080781E0180786
:100FC00028F088E190E0A0E0B0E004C080E190E08B
:100FD000A0E0B0E020E230E040E050E0281B390B18
:100FE0004A0B5B0B04C016950795F794E7948A9516
:100FF000D2F7F701EF5CFE4F8081281B31094109D0
:101000005109C9011F910F91FF90EF900895DF9250
:10101000EF92FF920F931F93FC01E480F58006810D
:101020001781D1808081823048F480E090E0A0E197
:10103000B0E0E82AF92A0A2B1B2BA5C0843009F45A
:101040009FC0823021F4EE24FF24870105C0E11403
:10105000F1040105110519F4E0E0F0E096C06281A9
:1010600073819FEF623879070CF05BC022E83FEF95
:10107000261B370B2A3131052CF020E030E040E010
:1010800050E02AC0B801A701022E04C076956795EA
:10109000579547950A94D2F781E090E0A0E0B0E040
:1010A00004C0880F991FAA1FBB1F2A95D2F701976A
:1010B000A109B1098E219F21A023B1230097A10589
:1010C000B10521F081E090E0A0E0B0E09A01AB0131
:1010D000282B392B4A2B5B2BDA01C9018F779070B3
:1010E000A070B07080349105A105B10539F427FFD7
:1010F00009C0205C3F4F4F4F5F4F04C0215C3F4F02
:101100004F4F5F4FE0E0F0E02030A0E03A07A0E072
:101110004A07A0E45A0710F0E1E0F0E079018A0103
:1011200027C06038710564F5FB01E158FF4FD80115
:10113000C7018F779070A070B07080349105A105C1
:10114000B10539F4E7FE0DC080E490E0A0E0B0E026
:1011500004C08FE390E0A0E0B0E0E80EF91E0A1FA3
:101160001B1F17FF05C016950795F794E794319656
:1011700087E016950795F794E7948A95D1F705C00F
:10118000EE24FF248701EFEFF0E06E2F67956627CE
:101190006795902F9F77D794DD24D7948E2F8695CF
:1011A000492F462B582F5D29B701CA011F910F9176
:1011B000FF90EF90DF900895FC01DB0140815181A9
:1011C0002281622F6F7770E0221F2227221F9381D6
:1011D000892F880F822B282F30E0991F9927991F7C
:1011E00011969C93119721153105A9F541155105CB
:1011F0006105710511F482E037C082E89FEF139614
:101200009C938E9312979A01AB0167E0220F331FD4
:10121000441F551F6A95D1F783E08C930DC0220FB0
:10122000331F441F551F12968D919C911397019760
:1012300013969C938E931297203080E0380780E0BD
:10124000480780E4580758F314962D933D934D9327
:101250005C93179708952F3F310579F44115510597
:101260006105710519F484E08C93089564FF03C04F
:1012700081E08C9312C01C9210C02F5730401396FF
:101280003C932E93129783E08C9387E0440F551F75
:10129000661F771F8A95D1F7706414964D935D93FE
:1012A0006D937C93179708951F93DC01FB019C912C
:1012B000923008F447C08081823008F443C09430F3
:1012C00051F411961C91843099F58181682F70E05A
:1012D000611B71093FC0843021F0923031F48230BB
:1012E000B9F18181882389F12DC011961C91119744
:1012F0008230F1F081811817D9F412962D913C912A
:101300001397828193818217930794F028173907E6
:10131000BCF014968D919D910D90BC91A02D2481CF
:10132000358146815781281739074A075B0718F42A
:10133000112341F00AC082179307A407B50740F4B0
:10134000112319F061E070E005C06FEF7FEF02C07C
:1013500060E070E0CB011F91089597FB092E0526F0
:101360000ED057FD04D014D00AD0001C38F450958C
:101370004095309521953F4F4F4F5F4F0895F6F7B9
:1013800090958095709561957F4F8F4F9F4F0895F1
:10139000A1E21A2EAA1BBB1BFD010DC0AA1FBB1F79
:1013A000EE1FFF1FA217B307E407F50720F0A21BEB
:1013B000B30BE40BF50B661F771F881F991F1A9458
:1013C00069F760957095809590959B01AC01BD0182
:1013D000CF0108952F923F924F925F926F927F922A
:1013E0008F929F92AF92BF92CF92DF92EF92FF9235
:1013F0000F931F93CF93DF93CDB7DEB7CA1BDB0BE1
:101400000FB6F894DEBF0FBECDBF09942A88398885
:1014100048885F846E847D848C849B84AA84B9848C
:10142000C884DF80EE80FD800C811B81AA81B98198
:10143000CE0FD11D0FB6F894DEBF0FBECDBFED01AC
:101440000895AEE0B0E0E7E2FAE00C94F8090D8907
:101450001E898F89988D97FF02C080E090E80197E0
:101460009E838D831A83098386E08C839E01255E8B
:101470003F4FCE010196698D7A8DA9010E94520AD3
:101480004D815E8157FD0AC02F8138854217530771
:101490000CF49A01020F131FF80110822E96E4E05B
:1014A0000C94140AABE0B0E0E8E5FAE00C94EA0929
:1014B0003C012B015A01FC0117821682838181FDB8
:1014C00003C06FEF7FEFC6C19AE0892E1E0108941A
:1014D000211C311CF3012381F20123FD859123FF9F
:1014E00081912F01882309F4B2C1853239F423FD9B
:1014F000859123FF81912F01853229F490E0B3017A
:101500000E94450CE7CF982FFF24EE249924FFE199
:10151000FF15D0F09B3269F09C3228F4903259F0DC
:10152000933291F40EC09D3249F0903369F441E05A
:1015300024C052E0F52A84E0F82A28C098E0F92A6D
:1015400025C0E0E1FE2A22C0F7FC29C0892F805384
:101550008A3070F4F6FE05C0989C902C1124980EE9
:1015600015C0E89CE02C1124E80EF0E2FF2A0EC022
:101570009E3229F4F6FC6BC140E4F42A07C09C3685
:1015800019F450E8F52A02C0983649F4F20123FD17
:10159000959123FF91912F01992309F0B8CF892FBD
:1015A0008554833018F08052833038F444E050E0A2
:1015B000A40EB51E5FE359830FC0933631F0933705
:1015C00079F0933509F056C020C0F50180818983F8
:1015D00042E050E0A40EB51E610101E010E012C02F
:1015E000F501C080D180F6FC03C06FEF7FEF02C031
:1015F000692D70E042E050E0A40EB51EC6010E94C5
:101600003A0C8C015FE7F52214C0F501C080D1804F
:10161000F6FC03C06FEF7FEF02C0692D70E042E07F
:1016200050E0A40EB51EC6010E942F0C8C0150E89C
:10163000F52AF3FE07C01AC080E290E0B3010E94D1
:10164000450CEA948E2D90E008171907A8F30EC0F8
:10165000F601F7FC8591F7FE81916F0190E0B301EF
:101660000E94450CE110EA9401501040011511054B
:1016700079F7EAC0943611F0993669F5F7FE08C09B
:10168000F501208131814281538184E090E00AC0DC
:10169000F501808191819C01442737FD4095542FAD
:1016A00082E090E0A80EB91E9FE6F92257FF09C01C
:1016B00050954095309521953F4F4F4F5F4FE0E853
:1016C000FE2ACA01B901A1012AE030E00E94710C92
:1016D000D82ED21840C0953729F41F2D1F7E2AE03E
:1016E00030E01DC01F2D197F9F3661F0903720F428
:1016F000983509F0ACC00FC0903739F0983709F031
:10170000A6C004C028E030E00AC0106114FD1460D7
:1017100020E130E004C014FD166020E132E017FF44
:1017200008C0F501608171818281938144E050E0BD
:1017300008C0F50180819181BC0180E090E042E029
:1017400050E0A40EB51EA1010E94710CD82ED21833
:101750008FE7F82EF122F6FE0BC05EEFF522D914CA
:1017600038F4F4FE07C0F2FC05C08FEEF82202C088
:101770001D2D01C0192DF4FE0DC0FE01ED0DF11D52
:101780008081803319F499EEF92208C01F5FF2FEC0
:1017900005C003C08F2D867809F01F5F0F2DF3FC65
:1017A00014C0F0FE0FC01E1510F09D2C0BC09D2C18
:1017B0009E0C911A1E2D06C080E290E0B3010E949B
:1017C000450C1F5F1E15C0F304C01E1510F4E11A6E
:1017D00001C0EE2404FF0FC080E390E0B3010E943B
:1017E000450C02FF1DC001FD03C088E790E00EC05C
:1017F00088E590E00BC0802F867891F001FF02C051
:101800008BE201C080E2F7FC8DE290E0B3010E9420
:10181000450C06C080E390E0B3010E94450C9A9409
:10182000D914C0F3DA94F101ED0DF11D808190E03F
:10183000B3010E94450CDD20A9F706C080E290E0CC
:10184000B3010E94450CEA94EE20C1F743CEF301A8
:1018500066817781CB012B96E2E10C94060AFC01AC
:101860000590615070400110D8F7809590958E0FCB
:101870009F1F0895FC016150704001900110D8F73E
:10188000809590958E0F9F1F08950F931F93CF9370
:10189000DF938C01EB018B8181FF1BC082FF0DC0A8
:1018A0002E813F818C819D812817390764F4E8815E
:1018B000F9810193F983E88306C0E885F985802FD3
:1018C0000995892B31F48E819F8101969F838E83A8
:1018D00002C00FEF1FEFC801DF91CF911F910F9151
:1018E0000895FA01AA27283051F1203181F1E894B6
:1018F0006F936E7F6E5F7F4F8F4F9F4FAF4FB1E003
:101900003ED0B4E03CD0670F781F891F9A1FA11DFD
:10191000680F791F8A1F911DA11D6A0F711D811DFE
:10192000911DA11D20D009F468943F912AE0269FC3
:1019300011243019305D3193DEF6CF010895462F22
:101940004770405D4193B3E00FD0C9F7F6CF462F03
:101950004F70405D4A3318F0495D31FD405241936C
:1019600002D0A9F7EACFB4E0A69597958795779529
:101970006795BA95C9F700976105710508959B01B0
:10198000AC010A2E06945795479537952795BA9539
:10199000C9F7620F731F841F951FA01D0895F89447
:0219A000FFCF77
:1019A2004C61622033004A616E6E61204A756D613E
:1019B2006F2D61730020256400060126014A015D36
:1019C200018801B801EE010B0200000000000000D6
:1019D20000000102020303030304040404040404D8
:1019E20004050505050505050505050505050505A6
:1019F2000506060606060606060606060606060686
:101A02000606060606060606060606060606060674
:101A12000607070707070707070707070707070755
:101A22000707070707070707070707070707070744
:101A32000707070707070707070707070707070734
:101A42000707070707070707070707070707070724
:101A52000708080808080808080808080808080805
:101A620008080808080808080808080808080808F4
:101A720008080808080808080808080808080808E4
:101A820008080808080808080808080808080808D4
:101A920008080808080808080808080808080808C4
:101AA20008080808080808080808080808080808B4
:101AB20008080808080808080808080808080808A4
:101AC2000808080808080808080808080808080894
:021AD20008000A
:00000001FF
