:100000000C9434000C9451000C9451000C94510049
:100010000C9465000C9451000C9451000C94510008
:100020000C9451000C9451000C9451000C9451000C
:100030000C9451000C9451000C9451000C945100FC
:100040000C9451000C9451000C9451000C945100EC
:100050000C9451000C9451000C9451000C945100DC
:100060000C9451000C94510011241FBECFEFD8E026
:10007000DEBFCDBF11E0A0E0B1E0E2E9F2E002C0F6
:1000800005900D92A230B107D9F711E0A2E0B1E0DE
:1000900001C01D92A430B107E1F70E94BB000C948F
:1000A00047010C940000E0EBF0E0808183608083E6
:1000B000808180688083E1EBF0E0808187608083CD
:1000C000809100018093B30008951F920F920FB6A4
:1000D0000F9211242F938F939F9386B190E080719C
:1000E000907024E0959587952A95E1F7282F96B191
:1000F00080910301281701F1892F90E080729070A0
:10010000689414F8959587951694E1F7281741F4AB
:10011000809100018F3F69F0809100018F5F07C0DF
:1001200080910001882329F0809100018150809303
:10013000000181E080930201209303019F918F9140
:100140002F910F900FBE0F901F901895239A87B193
:100150008F7C87B988B1806388B9E8E6F0E0808158
:1001600082608083ECE6F0E08081806380830E947F
:100170005300789408950E94A6008091020188237C
:10018000E1F3809100018093B30010920201F5CF5A
:100190009BB19F709BB99BB18295807F982B9BB937
:1001A000299A85E08A95F1F7299808951F93182FC9
:1001B000289A82958F700E94C800812F0E94C800E3
:1001C00080E49FE10197F1F71F9108951F93182F85
:1001D000289882958F700E94C800812F0E94C800C5
:1001E00080E49FE10197F1F71F91089584B1836046
:1001F00084B98AB1806F8AB980E69AEE0197F1F7E7
:1002000080E30E94C80080E29EE40197F1F780E35A
:100210000E94C80080EE91E00197F1F780E30E9410
:10022000C80080E20E94C80080E49FE10197F1F7D6
:1002300088E20E94E6008CE00E94E600089581308A
:1002400039F0813050F0823029F0833051F404C00D
:10025000605C03C06C5E01C06C5A862F80680E948F
:10026000E6000895CF93DF93EC0103C021960E942E
:10027000D60088818823D1F7DF91CF91089581E05E
:100280000E94E60080E49FE10197F1F70895F89459
:02029000FFCF9E
:020292008000EA
:00000001FF
