:100000000C9434000C9451000C9451000C94510049
:100010000C9451000C9451000C9451000C9451001C
:100020000C9451000C9451000C9443010C94510019
:100030000C9451000C9451000C9451000C945100FC
:100040000C9451000C9451000C9451000C945100EC
:100050000C9451000C9451000C9451000C945100DC
:100060000C9451000C94510011241FBECFEFD8E026
:10007000DEBFCDBF11E0A0E0B1E0EEE1F4E002C0F0
:1000800005900D92A435B107D9F711E0A4E5B1E0D0
:1000900001C01D92A935B107E1F70E9453000C94ED
:1000A0000D020C9400000F931F93CF93DF930E94D7
:1000B00093000E947F010E94990180E197E220E96C
:1000C00031E0F9013197F1F70197D9F780EF9AE024
:1000D0000E94EB0180E197E220E931E0F9013197DC
:1000E000F1F70197D9F780E091E00E94A7008CE139
:1000F00091E00E94A700C0E9D1E00E949D018C011F
:1001000089E391E00E94A700C8010E94B4008DE439
:1001100091E00E94A70088E893E1FE013197F1F792
:100120000197D9F7EACF1092C50087E68093C40003
:1001300088E08093C10086E08093C2000895982FE4
:100140008091C00085FFFCCF9093C6000895FC010C
:1001500007C08091C00085FFFCCF31969093C60008
:1001600090819923B1F708950F931F93DF93CF9355
:1001700000D000D000D0CDB7DEB79C01009741F48D
:100180008091C00085FFFCCF80E38093C6002AC029
:1001900040E08E010F5F1F4FF801E40FF11DC90110
:1001A0006AE070E00E94F901805D80834F5FC901C1
:1001B0006AE070E00E94F9019B016115710561F729
:1001C0000CC04150F901E40FF11DE0818091C000A5
:1001D00085FFFCCFE093C60003C09E012F5F3F4F19
:1001E000442379F726960FB6F894DEBF0FBECDBF35
:1001F000CF91DF911F910F910895823711F4289AC2
:1002000008958C3609F42B9A0895823711F42898B2
:1002100008958C3609F42B98089584B1896084B9C7
:1002200082E70E94FD0080ED97E020E931E0F901CE
:100230003197F1F70197D9F782E70E9405018CE623
:100240000E94FD0080ED97E020E931E0F90131974F
:10025000F1F70197D9F78CE60E940501089583E82C
:1002600084BD83E085BD0895E1E8F0E0808180648D
:100270008083808182608083EFE6F0E0808180620D
:100280008083789408951F920F920FB60F921124D5
:100290002F933F938F939F9380915801882389F4E4
:1002A000809186009091870090935501809354012E
:1002B000809181008F7B8093810081E08093580141
:1002C00015C0809186009091870020915401309153
:1002D0005501821B930B9093570180935601809197
:1002E0008100806480938100109258019F918F91CA
:1002F0003F912F910F900FBE0F901F901895229A4B
:10030000E0E8F0E01082A1E8B0E01C9280E49CE913
:1003100090938700809386008081826280838C9195
:100320008A618C9380EF9AE090938B0080938A008F
:100330000895249A2C98259808952C9A85E38A95F7
:10034000F1F72C9880E090E005C001962AEE813606
:100350009207D1F01D9BF9CF109285001092840076
:1003600080E090E005C001962AEE8136920761F0A8
:100370001D99F9CF809184009091850064E970E027
:100380000E94F9019B0102C02FEF3FEFC9010895C0
:10039000CF93DF93EC0182E70E9405018CE60E9477
:1003A00005010E949D01499798F482E1C03CD8075D
:1003B00061F083E0C438D80711F482E707C0C05F5A
:1003C000DA4031F482E70E94FD008CE60E94FD00D5
:1003D000DF91CF91089590938B0080938A0080E104
:1003E00097E220E931E0F9013197F1F70197D9F768
:1003F0000895AA1BBB1B51E107C0AA1FBB1FA6176C
:10040000B70710F0A61BB70B881F991F5A95A9F7BD
:0E04100080959095BC01CD010895F894FFCF22
:10041E00556C747261736F6E69632053656E736F82
:10042E00722052656164696E670D0A003D3D3D3D67
:10043E003D3D3D3D3D3D3D3D3D3D3D3D3D3D3D3DDE
:10044E003D3D3D3D3D3D0D0A004D65617375726547
:10045E00642044697374616E63653A200020696E8E
:04046E000D0A000073
:00000001FF
