:100000000C9434000C943E000C943E000C943E0082
:100010000C943E000C943E000C943E000C943E0068
:100020000C943E000C943E000C943E000C943E0058
:100030000C943E000C943E000C943E000C943E0048
:100040000C943E000C943E000C943E000C943E0038
:100050000C943E000C943E000C943E000C943E0028
:100060000C943E000C943E0011241FBECFEFD8E04C
:10007000DEBFCDBF0E9440000C94B9000C9400007C
:100080000E9490008DE40E945A0083E50E945A006D
:1000900085E50E945A00FFCF9BB19F709BB99BB131
:1000A0008295807F982B9BB9299A85E08A95F1F7F4
:1000B000299808951F93182F289A82958F700E946F
:1000C0004C00812F0E944C0080E49FE10197F1F7E2
:1000D0001F910895CF93DF93EC0102C00E945A0054
:1000E00089918823D9F7DF91CF9108951F93182F15
:1000F000289882958F700E944C00812F0E944C009E
:1001000080E49FE10197F1F71F910895882319F486
:10011000862F805802C0862F80540E947600089552
:1001200084B1836084B98AB1806F8AB980E69AEE1F
:100130000197F1F780E30E944C0080E29EE4019772
:10014000F1F780E30E944C0088EB91E00197F1F712
:1001500080E30E944C0080E20E944C0080E49FE11A
:100160000197F1F788E20E9476008CE00E94760009
:060170000895F894FFCF92
:00000001FF
