:100000000C9434000C943E000C943E000C943E0082
:100010000C943E000C943E000C943E000C943E0068
:100020000C943E000C943E000C943E000C943E0058
:100030000C943E000C943E000C943E000C943E0048
:100040000C943E000C943E000C943E000C943E0038
:100050000C943E000C943E000C943E000C943E0028
:100060000C943E000C943E0011241FBECFEFD8E04C
:10007000DEBFCDBF0E9440000C949F000C94000096
:100080000E94760080E00E945600299A299A2998B9
:10009000F9CF9BB19F709BB99BB1807F892B8BB9A6
:1000A000299A85E08A95F1F7299808951F93182FCA
:1000B000289A82958F700E944900812F0E944900E2
:1000C00080E49FE10197F1F71F9108951F93182F86
:1000D000289882958F700E944900812F0E944900C4
:1000E00080E49FE10197F1F71F91089584B1836047
:1000F00084B98AB1806F8AB980E69AEE0197F1F7E8
:1001000080E30E94490080E29EE40197F1F780E3DA
:100110000E94490080EE91E00197F1F780E30E9490
:10012000490080E20E94490080E49FE10197F1F7D5
:1001300088E20E9466008FE00E9466000895F894AD
:02014000FFCFEF
:00000001FF
